:100000000C942A000C9441040C94A0030C94E90273
:100010000C9406020C94D9010C9447000C946002D5
:100020000C9447000C9433020C94BC020C948F0285
:100030000C9447000C9447000C9447000C94470024
:100040000C9417050C9447000C9447000C9447003F
:100050000C94470011241FBECFE5D8E0DEBFCDBF12
:1000600010E0A0E6B0E0ECE1F4E102C005900D92F2
:10007000A63CB107D9F720E0A6ECB0E001C01D9284
:10008000A63EB207E1F70E944A050C940C0A0C94B4
:10009000000021E030E001C0220F6A95EAF78334C6
:1000A00059F0843491F088B3413019F4282B28BBDF
:1000B000089520952823FBCF85B3413019F4282BD0
:1000C00025BB089520952823FBCF82B3413019F436
:1000D000282B22BB089520952823FBCFDC01EC912F
:1000E000E15390E0E93020F4F0E0E457FF4F9081D5
:1000F0001196EC91E15380E0E93020F4F0E0E45710
:10010000FF4F80812AE0929F800D1124FB018083A4
:1001100008958FB9779BFECF0895A99A85E08A95B7
:10012000F1F70000A9980895CF93DF93C82F84FBBF
:10013000442740F962E083E40E944900C5FB44275C
:1001400040F963E083E40E944900C6FB442740F97C
:1001500064E083E40E9449004C2F441F4427441F5D
:1001600065E083E40E944900A89A0E948D00DC2F7C
:10017000DF704C2F417062E083E40E944900D1FBA4
:10018000442740F963E083E40E944900D2FB4427FE
:1001900040F964E083E40E9449004D2F469546955E
:1001A000469565E083E40E944900DF91CF910C946D
:1001B0008D00CF93DF93EC018991811103C0DF9112
:1001C000CF9108950E949400F7CFCF93DF93C82F6B
:1001D00084FB442740F962E083E40E944900C5FBA8
:1001E000442740F963E083E40E944900C6FB4427AA
:1001F00040F964E083E40E9449004C2F441F4427E7
:10020000441F65E083E40E944900A8980E948D0085
:10021000DC2FDF704C2F417062E083E40E944900C4
:10022000D1FB442740F963E083E40E944900D2FBFC
:10023000442740F964E083E40E9449004D2F46952D
:100240004695469565E083E40E944900DF91CF9191
:100250000C948D00CF93C82F81E00E94E5008FE3BE
:100260009FE10197F1F700C0000085E990E00E944E
:10027000D900809170000E949400809171000E94CA
:10028000940085E10E94E50085E10E94E50085E19A
:100290000E94E50085E10E94E5008AE990E00E9465
:1002A000D90080916E000E94940080916F000E949E
:1002B000940080EC0E94E5008FE990E00E94D90054
:1002C000C13061F030F0C23061F0C33069F0CF91DD
:1002D000089586EA90E0CF910C94D9008EEA90E0E0
:1002E000FACF88EB90E0F7CF8FEB90E0F4CF8091DE
:1002F000CB009091CC0001969093CC008093CB00E2
:100300008091CB009091CC0080FD0BC08091D900F2
:10031000823021F08091D900813019F481E08093FE
:1003200062008091CB009091CC0065E070E00E946B
:10033000F809892B59F48091D900823021F08091FD
:10034000D900813019F481E08093D5008091D900E3
:10035000813051F580916A0090916300981720F5E3
:10036000891B990B069704F18091D6009091D700D4
:1003700001969093D7008093D6008091D6009091FB
:10038000D7008830974078F08091D900813059F4B7
:1003900083E08093D9008091D9000E942A011092B5
:1003A000CC001092CB0008951092D7001092D60086
:1003B000E4CF1F920F920FB60F9211242F933F9309
:1003C0004F935F936F937F938F939F93AF93BF935D
:1003D000EF93FF938091E4009091E500892B29F041
:1003E000E091E400F091E5000995FF91EF91BF9154
:1003F000AF919F918F917F916F915F914F913F91BD
:100400002F910F900FBE0F901F9018951F920F9273
:100410000FB60F9211242F933F934F935F936F93D7
:100420007F938F939F93AF93BF93EF93FF938091AD
:10043000E2009091E300892B29F0E091E200F09135
:10044000E3000995FF91EF91BF91AF919F918F913B
:100450007F916F915F914F913F912F910F900FBEC0
:100460000F901F9018951F920F920FB60F921124A4
:100470002F933F934F935F936F937F938F939F93AC
:10048000AF93BF93EF93FF938091E0009091E100D1
:10049000892B29F0E091E000F091E1000995FF91AE
:1004A000EF91BF91AF919F918F917F916F915F91EC
:1004B0004F913F912F910F900FBE0F901F90189565
:1004C0001F920F920FB60F9211242F933F934F93C9
:1004D0005F936F937F938F939F93AF93BF93EF93AC
:1004E000FF931DBC1CBC8091DE009091DF00892B26
:1004F00029F0E091DE00F091DF000995FF91EF9186
:10050000BF91AF919F918F917F916F915F914F912B
:100510003F912F910F900FBE0F901F9018951F9233
:100520000F920FB60F9211242F933F934F935F9327
:100530006F937F938F939F93AF93BF93EF93FF93AB
:100540008091DC009091DD00892B29F0E091DC00A6
:10055000F091DD000995FF91EF91BF91AF919F91CF
:100560008F917F916F915F914F913F912F910F905C
:100570000FBE0F901F9018951F920F920FB60F92FB
:1005800011242F933F934F935F936F937F938F9398
:100590009F93AF93BF93EF93FF938091DA00909175
:1005A000DB00892B29F0E091DA00F091DB0009955E
:1005B000FF91EF91BF91AF919F918F917F916F913B
:1005C0005F914F913F912F910F900FBE0F901F9011
:1005D00018951F920F920FB60F921124AF92BF92EF
:1005E000CF92DF92EF92FF920F931F932F933F933F
:1005F0004F935F936F937F938F939F93AF93BF932B
:10060000EF93FF93CF93DF93CDB7DEB72897DEBF8D
:10061000CDBF8091720090917300A0917400B09151
:1006200075008D839E83AF83B8878091760090910B
:100630007700A0917800B091790089839A83AB8389
:10064000BC836E0185E0C80ED11C10E000E086E49A
:10065000F82EAA24A394B12CF60161916F0182B304
:100660009501062E01C0220F0A94EAF7822B82BB65
:1006700086B382FBEE24E0F882FF07C0E1E0F0E001
:10068000EC0FFD1FE00FF11FF08040E084E40E94BA
:100690004900E11005C00F5F1F4F04301105E1F65E
:1006A000F0926D0080916D00833299F58091D900B0
:1006B000811128C081E08093D9008091D9000E94E7
:1006C0002A0128960FB6F894DEBF0FBECDBFDF918A
:1006D000CF91FF91EF91BF91AF919F918F917F91BA
:1006E0006F915F914F913F912F911F910F91FF90CB
:1006F000EF90DF90CF90BF90AF900F900FBE0F9014
:100700001F9018958091D9008130B9F61092D900C8
:10071000D4CF8091D900813021F08091D9008230EE
:1007200081F6E091D800F0E080916D00E559FF4F2F
:1007300080838091D80091E089278093D800C1CF31
:100740001F920F920FB60F921124AF92BF92CF92C9
:10075000DF92EF92FF920F931F932F933F934F934C
:100760005F936F937F938F939F93AF93BF93EF9319
:10077000FF93CF93DF93CDB7DEB72897DEBFCDBF12
:100780008091D900813029F08091D900823009F020
:1007900057C08091720090917300A0917400B09145
:1007A00075008D839E83AF83B88780917A00909186
:1007B0007B00A0917C00B0917D0089839A83AB83FC
:1007C000BC836E0185E0C80ED11C10E000E086E419
:1007D000F82EAA24A394B12CF60161916F0182B383
:1007E0009501062E01C0220F0A94EAF7822B82BBE4
:1007F00080B383FBEE24E0F883FF07C0E1E0F0E084
:10080000EC0FFD1FE00FF11FF08040E084E40E9438
:100810004900E11005C00F5F1F4F04301105E1F6DC
:10082000F0926D00E091D800F0E080916D00E55904
:10083000FF4F80838091D80091E089278093D80072
:1008400028960FB6F894DEBF0FBECDBFDF91CF91D3
:10085000FF91EF91BF91AF919F918F917F916F9198
:100860005F914F913F912F911F910F91FF90EF90CA
:10087000DF90CF90BF90AF900F900FBE0F901F9062
:1008800018951F920F920FB60F921124AF92BF923C
:10089000CF92DF92EF92FF920F931F932F933F938C
:1008A0004F935F936F937F938F939F93AF93BF9378
:1008B000EF93FF93CF93DF93CDB7DEB72897DEBFDB
:1008C000CDBF8091720090917300A0917400B0919F
:1008D00075008D839E83AF83B88780917E00909151
:1008E0007F00A0918000B091810089839A83AB83BF
:1008F000BC836E0185E0C80ED11C10E000E086E4E8
:10090000F82EAA24A394B12CF60161916F0182B351
:100910009501062E01C0220F0A94EAF7822B82BBB2
:1009200080B382FBEE24E0F882FF07C0E1E0F0E054
:10093000EC0FFD1FE00FF11FF08040E084E40E9407
:100940004900E11005C00F5F1F4F04301105E1F6AB
:10095000F0926D0080916D008A3209F051C0809153
:10096000D900813029F08091D900823009F048C047
:100970009091D8009130B9F580E380937000809118
:100980006B00809371008091D80089278093D800F4
:100990008091D9000E942A016AE670E080E790E029
:1009A0000E946E0028960FB6F894DEBF0FBECDBF32
:1009B000DF91CF91FF91EF91BF91AF919F918F9177
:1009C0007F916F915F914F913F912F911F910F9167
:1009D000FF90EF90DF90CF90BF90AF900F900FBE41
:1009E0000F901F9018958091D8008111DBCF8091D6
:1009F0006B008093700080916C0080937100C8CF71
:100A00008091D900813021F08091D900823051F657
:100A1000E091D800F0E080916D00E559FF4F8083B0
:100A20008091D80091E089278093D800BBCF1F9296
:100A30000F920FB60F9211242F933F934F935F9312
:100A40006F937F938F939F93AF93BF93EF93FF9396
:100A500084B195B19093D4008093D3008091CD0060
:100A60009091CE00892B29F0E091CD00F091CE003D
:100A70000995FF91EF91BF91AF919F918F917F91D8
:100A80006F915F914F913F912F910F900FBE0F90FB
:100A90001F9018958CE08FBD88E08EBD1DBC1CBCDE
:100AA00089E698E19BBD8ABD89B7846189BF8EB50F
:100AB00083608EBD8EB58E7F8EBD8EB581608EBDFE
:100AC0008EB58D7F8EBD8EB582608EBD8EB58B7FCF
:100AD0008EBD8EB58EBD8FB780688FBF87E791E0E2
:100AE0009093DF008093DE008A988B98BA98929A50
:100AF000939AC29A85B78D7F85BF85B78E7F85BF54
:100B000085B78B7F85BF85B7877F85BF84B78F7B90
:100B100084BF8FB780688FBF8BB780688BBF8BB760
:100B200080648BBF8BB780628BBF8C9A8D9A8E9AB4
:100B30008F9A9498959896989798BD9ABC9ABF9AD0
:100B40008DB187658DB97098C49A80E80E9489003C
:100B500084E00E948900C4988FE891E00197F1F742
:100B600000C00000A29AA39AA49AA59AA19AA09A5A
:100B700082E00E94E50088E20E94E5008CE00E948D
:100B8000E50081E00E94E5008FE39FE10197F1F726
:100B900000C00000809164008295880F880F807CDF
:100BA00087B9379A339896B180916600880F880F7D
:100BB000880F892B86B986B1887F90916800892B30
:100BC00086B988E483BF83B7806283BF12BE8FE794
:100BD0008CBF83B78F7783BFBB9AC39889B789BF10
:100BE00083B78E7F83BF83B783BF83B78D7F83BF78
:100BF00083B7826083BF83B78B7F83BF83B783BF95
:100C00008FB780688FBF81E00E94E5008FE39FE18E
:100C10000197F1F700C00000C0E185E10E94E50006
:100C2000C150D9F787E50E94940088E10E94E50051
:100C30009FEF21EE34E0915020403040E1F700C0BA
:100C4000000085E40E94940088E10E94E5004FEFD7
:100C500051EE84E0415050408040E1F700C0000078
:100C60008CE40E94940088E10E94E5009FEF21EE51
:100C700034E0915020403040E1F700C0000083E4B0
:100C80000E94940088E10E94E5004FEF51EE84E05D
:100C9000415050408040E1F700C000008FE40E94C6
:100CA000940088E10E94E5009FEF21EE34E091502E
:100CB00020403040E1F700C000008DE40E94940025
:100CC00088E10E94E5004FEF51EE84E04150504032
:100CD0008040E1F700C0000085E40E94940088E1B4
:100CE0000E94E5009FEF21EE34E09150204030401B
:100CF000E1F700C00000D3E0C9E088E10E94E50010
:100D00004FEF51EE84E0415050408040E1F700C089
:100D10000000C15091F7C9E08CE10E94E5009FEF0F
:100D200021EE34E0915020403040E1F700C0000057
:100D3000C15091F7D15001F78EE00E94E5008091FB
:100D4000D9000E942A01CAE0D3E08091620081307C
:100D500009F052C0C49A82E00E94890080E00E949B
:100D60008900C4988FE891E00197F1F700C0000076
:100D7000779BFECF1FB1C49A81E00E94890080E07A
:100D80000E948900C4988FE891E00197F1F700C0B4
:100D9000000017FD1195812F6C2F0E94EC0920E0B7
:100DA0008A3028F4E82FF0E0EE57FF4F208120939F
:100DB0006E00812F6C2F0E94EC09E92FF0E0EE57B6
:100DC000FF4F808180936F0090916000921304C068
:100DD00090916100981771F02093600080936100FA
:100DE0008091D9000E942A0163E670E08EE690E0CF
:100DF0000E946E00109262008091D900813009F04B
:100E0000B4C0C090CF00D090D000E090D100F0905E
:100E1000D20060916A0070E090E080E00E94F108EA
:100E20004B015C016091630070E090E080E00E9403
:100E3000F3089B01AC01C501B4010E94E30720E067
:100E400030E040E251E40E945008A70196010E9460
:100E50007F0923B72E7F23BF23B723BF23B72D7F5F
:100E600023BF23B7226023BF23B72B7F23BF23B722
:100E700023BF12BE20E030E040E853E40E947F0927
:100E80000E94C2086CBF8091D5008130B1F587B156
:100E9000807E87B9369A8091660090916700892B91
:100EA000A1F4349BFECF349A84B195B19093D400D1
:100EB0008093D3008091CD009091CE00892B29F0B2
:100EC000E091CD00F091CE0009956091D300709132
:100ED000D40090E080E00E94F10820E030E040E89B
:100EE0005AE30E947F096093CF007093D0008093F3
:100EF000D1009093D2001092D5008091D90081301A
:100F0000B9F48091630090916A009817D0F5891B1D
:100F1000990B863091050CF048C082E08093D9008F
:100F20008091D9000E942A011092D7001092D60019
:100F30008091D900823009F008CF909163008091B0
:100F40006A008917B8F5492F481B550B46305105E3
:100F50008CF181E08093D9001092D7001092D600D6
:100F60008091D9000E942A01F0CE83B78E7F83BF83
:100F700083B78D7F83BF83B78B7F83BF12BE1CBEB9
:100F800082CF8917A8F6292F281B330B263031056D
:100F90007CF682E08093D9001092D7001092D600A0
:100FA0008091D9000E942A01C3CF0B970CF2D093F5
:100FB000D900F6CF981708F0C8CE891B990B069771
:100FC0000CF4C3CEC6CF5058BB27AA270E94FB07FC
:100FD0000C9445090E94370938F00E943E0920F020
:100FE00039F49F3F19F426F40C9434090EF4E0957B
:100FF000E7FB0C942E09E92F0E94560958F3BA1703
:10100000620773078407950720F079F4A6F50C941E
:1010100078090EF4E0950B2EBA2FA02D0B01B90123
:1010200090010C01CA01A0011124FF27591B99F05E
:10103000593F50F4503E68F11A16F040A22F232F6A
:10104000342F4427585FF3CF469537952795A795BA
:10105000F0405395C9F77EF41F16BA0B620B730B61
:10106000840BBAF09150A1F0FF0FBB1F661F771FD2
:10107000881FC2F70EC0BA0F621F731F841F48F487
:10108000879577956795B795F7959E3F08F0B0CF10
:101090009395880F08F09927EE0F979587950895F7
:1010A0000E9464080C9445090E943E0958F00E9471
:1010B000370940F029F45F3F29F00C942E095111B3
:1010C0000C9479090C9434090E94560968F3992309
:1010D000B1F3552391F3951B550BBB27AA27621734
:1010E0007307840738F09F5F5F4F220F331F441F41
:1010F000AA1FA9F335D00E2E3AF0E0E832D0915075
:101100005040E695001CCAF72BD0FE2F29D0660F61
:10111000771F881FBB1F261737074807AB07B0E8A4
:1011200009F0BB0B802DBF01FF2793585F4F3AF0AA
:101130009E3F510578F00C942E090C9479095F3F7D
:10114000E4F3983ED4F3869577956795B795F79530
:101150009F5FC9F7880F911D9695879597F9089518
:10116000E1E0660F771F881FBB1F621773078407B4
:10117000BA0720F0621B730B840BBA0BEE1F88F7C3
:10118000E09508950E945E0988F09F5798F0B92F66
:101190009927B751B0F0E1F0660F771F881F991FAC
:1011A0001AF0BA95C9F714C0B13091F00E947809CD
:1011B000B1E008950C947809672F782F8827B85FDD
:1011C00039F0B93FCCF3869577956795B395D9F704
:1011D0003EF490958095709561957F4F8F4F9F4F0E
:1011E0000895E89409C097FB3EF49095809570951A
:1011F00061957F4F8F4F9F4F9923A9F0F92F96E963
:10120000BB279395F695879577956795B795F111D7
:10121000F8CFFAF4BB0F11F460FF1BC06F5F7F4F74
:101220008F4F9F4F16C0882311F096E911C0772386
:1012300021F09EE8872F762F05C0662371F096E88F
:10124000862F70E060E02AF09A95660F771F881F5E
:10125000DAF7880F9695879597F9089597F99F671C
:1012600080E870E060E008959FEF80EC089500242E
:101270000A941616170618060906089500240A94FB
:1012800012161306140605060895092E0394000C81
:1012900011F4882352F0BB0F40F4BF2B11F460FF10
:1012A00004C06F5F7F4F8F4F9F4F089557FD905839
:1012B000440F551F59F05F3F71F04795880F97FB1A
:1012C000991F61F09F3F79F08795089512161306D4
:1012D0001406551FF2CF4695F1DF08C01616170603
:1012E0001806991FF1CF8695710561050894089538
:1012F000E894BB2766277727CB0197F908950E94CA
:1013000092090C9445090E94370938F00E943E0961
:1013100020F0952311F00C942E090C94340911241B
:101320000C9479090E94560970F3959FC1F3950FAB
:1013300050E0551F629FF001729FBB27F00DB11D59
:10134000639FAA27F00DB11DAA1F649F6627B00DE9
:10135000A11D661F829F2227B00DA11D621F739FD2
:10136000B00DA11D621F839FA00D611D221F749FE0
:101370003327A00D611D231F849F600D211D822F27
:10138000762F6A2F11249F5750409AF0F1F088234E
:101390004AF0EE0FFF1FBB1F661F771F881F91507B
:1013A0005040A9F79E3F510580F00C942E090C94F3
:1013B00079095F3FE4F3983ED4F386957795679576
:1013C000B795F795E7959F5FC1F7FE2B880F911DA5
:1013D0009695879597F90895991B79E004C0991F10
:1013E000961708F0961B881F7A95C9F7809508957F
:1013F000AA1BBB1B51E107C0AA1FBB1FA617B7073B
:1014000010F0A61BB70B881F991F5A95A9F7809556
:0C1410009095BC01CD010895F894FFCF29
:10141C0032350119010000000500193235464646E7
:10142C00323504050607333639233235383031343A
:10143C00372A303132333435363738390102030428
:10144C0005060708095345543A004352543A0053D1
:10145C00544154453A005354414E444259004F5064
:10146C0045524154494F4E004E4F524D414C004550
:06147C0052524F52000025
:00000001FF
