:100000000C942A000C945E000C945E000C945E002C
:100010000C945E000C945E000C945E000C945E00E8
:100020000C945E000C945E000C945E000C945E00D8
:100030000C945E000C945E000C945E000C945E00C8
:100040000C945E000C945E000C945E000C945E00B8
:100050000C945E0011241FBECFE5D8E0DEBFCDBFFB
:10006000E4E5F0E040E017C0B591A5913591259108
:10007000059107FD0CC095918591EF01F92FE82FAF
:1000800005900D92A217B307D9F7FE0104C01D9287
:10009000A217B307E1F7E435F40731F70E945400E3
:0800A0000C945200F894FFCF0C
:1000A8008FEF81BB90EF94BB85BB85B3877085BB11
:0400B80083B3FBCF44
:0400BC000C940000A0
:00000001FF
