:100000000C942A000C9447000C9447000C94470071
:100010000C9447000C9447000C9447000C94470044
:100020000C9447000C9447000C948F000C94BC0077
:100030000C9447000C9447000C9447000C94470024
:100040000C9447000C9447000C9447000C94470014
:100050000C94470011241FBECFE5D8E0DEBFCDBF12
:1000600010E0A0E6B0E0ECECF8E002C005900D92E4
:10007000A836B107D9F710E0A8E6B0E001C01D929C
:10008000AD36B107E1F70E9449040C9464040C9466
:100090000000FC01208123BF93B73181832F82951B
:1000A000807F892B83BF858182BF86818CBF22237D
:1000B00011F0283019F483B7806802C083B78F77B6
:1000C00083BF332311F0BB9AC39899B78381982BD0
:1000D0008481880F892B89BF83B79281892B83BF45
:1000E0008FB780688FBF089593B7982B93BF62BF77
:1000F00008958CBF089583B78D7F83BF83B78B7FAF
:1001000083BF83B78B7F83BF089590936C008093E8
:100110006B00089590936A008093690008951F9280
:100120000F920FB60F9211242F933F934F935F932B
:100130006F937F938F939F93AF93BF93EF93FF93AF
:1001400080916B0090916C00892B29F0E0916B00FD
:10015000F0916C000995FF91EF91BF91AF919F9144
:100160008F917F916F915F914F913F912F910F9060
:100170000FBE0F901F9018951F920F920FB60F92FF
:1001800011242F933F934F935F936F937F938F939C
:100190009F93AF93BF93EF93FF93809169009091EA
:1001A0006A00892B29F0E0916900F0916A000995B5
:1001B000FF91EF91BF91AF919F918F917F916F913F
:1001C0005F914F913F912F910F900FBE0F901F9015
:1001D0001895823429F1833420F4813409F06AC0FF
:1001E00006C08334B1F1843409F064C04BC041309F
:1001F00059F42AB381E090E002C0880F991F6A95F4
:10020000E2F7282B2ABB08952AB381E090E002C0D0
:10021000880F991F6A95E2F7809582238ABB08951B
:10022000413059F427B381E090E002C0880F991F54
:100230006A95E2F7282B27BB089527B381E090E069
:1002400002C0880F991F6A95E2F78095822387BBC9
:100250000895413059F424B381E090E002C0880F42
:10026000991F6A95E2F7282B24BB089524B381E0F7
:1002700090E002C0880F991F6A95E2F7809582236B
:1002800084BB0895413059F421B381E090E002C06D
:10029000880F991F6A95E2F7282B21BB089521B397
:1002A00081E090E002C0880F991F6A95E2F780957F
:1002B000822381BB0895823429F1833420F4813470
:1002C00009F06AC006C08334B1F1843409F064C017
:1002D0004BC0413059F42BB381E090E002C0880F4D
:1002E000991F6A95E2F7282B2BBB08952BB381E069
:1002F00090E002C0880F991F6A95E2F780958223EB
:100300008BBB0895413059F428B381E090E002C0DE
:10031000880F991F6A95E2F7282B28BB089528B308
:1003200081E090E002C0880F991F6A95E2F78095FE
:10033000822388BB0895413059F425B381E090E0D1
:1003400002C0880F991F6A95E2F7282B25BB0895F4
:1003500025B381E090E002C0880F991F6A95E2F70B
:100360008095822385BB0895413059F422B381E002
:1003700090E002C0880F991F6A95E2F7282B22BBF4
:10038000089522B381E090E002C0880F991F6A951A
:10039000E2F78095822382BB0895823469F083342A
:1003A00018F4813429F406C0833441F0843441F0D8
:1003B00020E00FC029B305C026B303C023B301C09A
:1003C00020B381E090E002C0880F991F6A95E2F7A0
:1003D0002823822F0895823451F1833418F4813414
:1003E00039F408C0833409F43FC0843409F459C097
:1003F00060E073C060E040E050E0E1E0F0E089B32D
:100400009F01042E02C0220F331F0A94E2F790E0EE
:1004100082239323019711F4622B03C0822F8095CE
:1004200068234F5F5F4F4830510549F756C060E081
:1004300040E050E0E1E0F0E086B39F01042E02C00E
:10044000220F331F0A94E2F790E08223932301974F
:1004500011F4622B03C0822F809568234F5F5F4F9A
:100460004830510549F739C060E040E050E0E1E034
:10047000F0E083B39F01042E02C0220F331F0A94C1
:10048000E2F790E082239323019711F4622B03C0DB
:10049000822F809568234F5F5F4F4830510549F7A1
:1004A0001CC060E040E050E0E1E0F0E080B39F017C
:1004B000042E02C0220F331F0A94E2F790E0822339
:1004C0009323019711F4622B03C0822F8095682338
:1004D0004F5F5F4F4830510549F7862F08958234AA
:1004E000A9F0833418F4813489F505C08334C9F048
:1004F000843461F521C02BB381E090E002C0880F05
:10050000991F6A95E2F728272BBB089528B381E04D
:1005100090E002C0880F991F6A95E2F7282728BB50
:10052000089525B381E090E002C0880F991F6A9575
:10053000E2F7282725BB089522B381E090E002C0AE
:10054000880F991F6A95E2F7282722BB0895823405
:1005500061F0833418F4813469F405C0833439F0D0
:10056000843441F406C06BBB089568BB089565BB35
:10057000089562BB0895823479F0833418F481348D
:10058000C9F405C0833469F08434A1F40FC08BB37F
:10059000607F862B8BBB089588B3607F862B88BBDA
:1005A000089585B3607F862B85BB089582B3607FF5
:1005B000862B82BB0895823471F0833418F4813421
:1005C000A9F405C0833459F0843481F40CC08BB392
:1005D0008F708BBB089588B38F7088BB089585B3E7
:1005E0008F7085BB089582B38F7082BB089582346B
:1005F00069F1833420F4813409F088C007C0833462
:1006000009F444C0843409F081C060C0413091F4E1
:1006100080B78F7E80BF3AB381E090E002C0880F40
:10062000991F6A95E2F7282F209523232ABB2BB325
:10063000822B0AC02BB381E090E002C0880F991F83
:100640006A95E2F7809582238BBB0895413091F43F
:1006500080B78F7E80BF37B381E090E002C0880F03
:10066000991F6A95E2F7282F2095232327BB28B3EB
:10067000822B0AC028B381E090E002C0880F991F46
:100680006A95E2F78095822388BB0895413091F402
:1006900080B78F7E80BF34B381E090E002C0880FC6
:1006A000991F6A95E2F7282F2095232324BB25B3B1
:1006B000822B0AC025B381E090E002C0880F991F09
:1006C0006A95E2F78095822385BB0895413099F4BD
:1006D00080B78F7E80BF31B381E090E002C0880F89
:1006E000991F6A95E2F7282F2095232321BB22B377
:1006F000822B82BB089522B381E090E002C0880F74
:10070000991F6A95E2F78095822382BB089583E45E
:1007100061E041E00E945B0181E08A95F1F783E4AA
:1007200061E040E00E945B0184EF91E00197F1F706
:10073000089583E462E040E00E945B0183E463E0AB
:1007400040E00E945B0183E464E040E00E945B01C2
:1007500083E465E040E00E945B0183E460E041E007
:100760000E945B010E94870383E462E040E00E94F4
:100770005B0183E463E040E00E945B0183E464E0AA
:1007800040E00E945B0183E465E040E00E945B0181
:100790000E9487030895CF93DF93EC0103C00E946A
:1007A0009903219688818823D1F7DF91CF9108950D
:1007B00083E462E040E00E945B0183E463E040E0A8
:1007C0000E945B0183E464E040E00E945B0183E4FB
:1007D00065E040E00E945B0183E460E040E00E944D
:1007E0005B010E94870383E462E040E00E945B01BA
:1007F00083E463E040E00E945B0183E464E040E066
:100800000E945B0183E465E040E00E945B010E947E
:100810008703089581E00E94D80384EF91E0019757
:10082000F1F780E80E94D803089583E462E041E094
:100830000E94E90083E463E041E00E94E90083E470
:1008400064E041E00E94E90083E465E041E00E9449
:10085000E90083E461E041E00E94E90083E460E0B4
:1008600041E00E94E90082E00E94D80388E20E94F1
:10087000D8038EE00E94D80381E00E94D80384EF61
:1008800091E00197F1F708958BB392E089278BBB34
:100890000895DF93CF93CDB7DEB727970FB6F894BF
:1008A000DEBF0FBECDBFD19A8FEF8ABBDE0111969E
:1008B000E0E6F0E087E001900D928150E1F7CE0193
:0C08C00001960E944900FFCFF894FFCF82
:0808CC00080105000100800095
:00000001FF
