:100000000C942A000C9447000C9447000C94470071
:100010000C9498050C94C5050C9447000C9447006B
:100020000C9447000C9447000C9436060C9463061D
:100030000C9447000C9447000C9447000C94470024
:100040000C9447000C9447000C9447000C94470014
:100050000C94470011241FBECFE5D8E0DEBFCDBF12
:1000600010E0A8E6B0E001C01D92A237B107E1F7A9
:1000700010E0A0E6B0E0E4E0F8E102C005900D92E7
:10008000A836B107D9F70E949E070C94000C0C9477
:100090000000EF92FF920F931F937B018C0120E0F1
:1000A00030E040E05FE40E94190388238CF0C8012F
:1000B000B70120E030E040E05FE40E94C1010E940F
:1000C00049039B01AC01205030404040504806C0DD
:1000D000C801B7010E9449039B01AC01B901CA01E3
:1000E0001F910F91FF90EF900895A0E0B0E0EBE733
:1000F000F0E00C94C90BDC012B01FA019C919230C9
:1001000008F439C1EB018881823008F433C194309E
:1001100069F4843009F02FC111969C91119789815F
:10012000981709F428C1A0E6B0E025C1843009F48D
:1001300021C18230A9F4923009F01DC19A01AD01AC
:1001400088E0EA010990AE01E90109929E0181501F
:10015000C1F7E201898111969C918923818308C1AD
:10016000923009F407C112962D903C901397EB0141
:100170008A819B811496AD90BD90CD90DC901797AD
:10018000EC80FD800E811F819101281B390BB90184
:1001900037FF04C066277727621B730B6032710537
:1001A0000CF061C0121613066CF537014801062EDB
:1001B00004C096948794779467940A94D2F721E0C8
:1001C00030E040E050E004C0220F331F441F551FB1
:1001D0006A95D2F721503040404050402E213F21B7
:1001E00040235123211531054105510521F021E01E
:1001F00030E040E050E079018A01E628F72808293C
:1002000019293CC0232BD1F1260E371E350146019A
:10021000062E04C096948794779467940A94D2F734
:1002200021E030E040E050E004C0220F331F441FC3
:10023000551F6A95D2F721503040404050402A2146
:100240003B214C215D21211531054105510521F04E
:1002500021E030E040E050E059016A01A628B728CB
:10026000C828D9280BC0821593052CF01C01AA249C
:10027000BB24650103C0EE24FF24870111969C91E5
:10028000D20111968C91981709F445C0992339F041
:10029000A80197012A193B094C095D0906C0A6016E
:1002A00095012E193F09400B510B57FD08C01182D3
:1002B0003382228224833583468357831DC081E0A5
:1002C00081833382228288279927DC01821B930B4A
:1002D000A40BB50B84839583A683B7830DC0220F2F
:1002E000331F441F551F24833583468357838281E0
:1002F000938101979383828324813581468157813D
:10030000DA01C9010197A109B1098F5F9F4FAF4F72
:10031000BF4328F30BC0918333822282EA0CFB1C7B
:100320000C1D1D1DE482F5820683178383E0808304
:10033000248135814681578157FF1AC0C901AA27F8
:1003400097FDA095BA2F81709070A070B0705695EF
:10035000479537952795822B932BA42BB52B848318
:100360009583A683B7838281938101969383828349
:10037000DF0101C0D201CD01CDB7DEB7E2E10C94BF
:10038000E50BA0E2B0E0E7ECF1E00C94D50B69835B
:100390007A838B839C832D833E834F835887E9E048
:1003A000EE2EF12CEC0EFD1ECE010196B7010E943F
:1003B00072048E010F5E1F4FCE010596B8010E9498
:1003C00072048A8991E089278A8BC701B801AE013E
:1003D000475E5F4F0E9475000E949D03A096E6E075
:1003E0000C94F10BA0E2B0E0E8EFF1E00C94D50B37
:1003F00069837A838B839C832D833E834F835887C5
:10040000F9E0EF2EF12CEC0EFD1ECE010196B701A6
:100410000E9472048E010F5E1F4FCE010596B80137
:100420000E947204C701B801AE01475E5F4F0E948F
:1004300075000E949D03A096E6E00C94F10BA0E2EB
:10044000B0E0E5E2F2E00C94C90B69837A838B8318
:100450009C832D833E834F835887CE010196BE0136
:10046000675F7F4F0E947204CE010596BE016F5EEA
:100470007F4F0E9472049985923088F0898982307A
:10048000C8F0943019F4823051F404C0843029F457
:10049000923081F480E690E0C6C0923049F420E0CA
:1004A0009A858A89981321E02A87CE010996BBC0D4
:1004B000823049F420E09A858A89981321E02A8BBA
:1004C000CE014196B0C02D843E844F8458886D88FB
:1004D0007E888F88988CEE24FF248701AA24BB2471
:1004E000650140E050E060E070E0E0E0F0E0C10174
:1004F00081709070892BE9F0E60CF71C081D191D1E
:100500009A01AB012A0D3B1D4C1D5D1D80E090E062
:10051000A0E0B0E0E614F7040805190520F481E036
:1005200090E0A0E0B0E0BA01A901480F591F6A1F8E
:100530007B1FAA0CBB1CCC1CDD1C97FE08C081E0F5
:1005400090E0A0E0B0E0A82AB92ACA2ADB2A3196B6
:10055000E032F10549F0660C771C881C991C569412
:10056000479437942794C3CFFA85EA892B893C892D
:100570008B859C85280F391F2E5F3F4F17C0CA01FE
:1005800081709070892B61F016950795F794E79428
:1005900080E090E0A0E0B0E8E82AF92A0A2B1B2BC3
:1005A00076956795579547952F5F3F4F77FDE7CF36
:1005B0000CC0440F551F661F771F17FD4160EE0CDE
:1005C000FF1C001F111F21503040403090E05907A0
:1005D00090E0690790E4790760F32B8F3C8FDB0193
:1005E000CA018F779070A070B07080349105A1051A
:1005F000B10561F447FD0AC0E114F10401051105DC
:1006000029F0405C5F4F6F4F7F4F40781A8EFE1786
:1006100011F081E08A8F4D8F5E8F6F8F78A383E01A
:10062000898FCE0149960E949D03A096E2E10C9429
:10063000E50BA8E1B0E0EFE1F3E00C94D50B6983A2
:100640007A838B839C832D833E834F83588789E0F5
:10065000E82EF12CEC0EFD1ECE010196B7010E9492
:1006600072048E010F5E1F4FCE010596B8010E94E5
:1006700072048985823040F08989823028F0C70170
:10068000B8010E94EA0401C08FEF6896E6E00C947E
:10069000F10BACE0B0E0EFE4F3E00C94D90B69832C
:1006A0007A838B839C83CE010196BE016B5F7F4F63
:1006B0000E9472048D81823061F1823050F1843069
:1006C00021F48E81882351F12EC02F81388537FD8A
:1006D00020C06E812F3131051CF06623F9F023C054
:1006E0008EE190E0821B930B29853A854B855C85D2
:1006F00004C056954795379527958A95D2F7662376
:10070000B1F050954095309521953F4F4F4F5F4F39
:100710000EC020E030E040E050E009C02FEF3FEF96
:100720004FEF5FE704C020E030E040E050E8B9015F
:10073000CA012C96E2E00C94F50BDF92EF92FF9247
:100740000F931F93FC01E480F58006811781D1800F
:100750008081823048F480E090E0A0E1B0E0E82AB7
:10076000F92A0A2B1B2BA5C0843009F49FC08230C4
:1007700021F4EE24FF24870105C0E114F1040105F2
:10078000110519F4E0E0F0E096C0628173819FEFFB
:10079000623879070CF05BC022E83FEF261B370B6D
:1007A0002A3131052CF020E030E040E050E02AC052
:1007B000B801A701022E04C0769567955795479515
:1007C0000A94D2F781E090E0A0E0B0E004C0880F86
:1007D000991FAA1FBB1F2A95D2F70197A109B1093A
:1007E0008E219F21A023B1230097A105B10521F0FF
:1007F00081E090E0A0E0B0E09A01AB01282B392B1A
:100800004A2B5B2BDA01C9018F779070A070B07012
:1008100080349105A105B10539F427FF09C0205C9A
:100820003F4F4F4F5F4F04C0215C3F4F4F4F5F4FD3
:10083000E0E0F0E02030A0E03A07A0E04A07A0E4C2
:100840005A0710F0E1E0F0E079018A0127C0603832
:10085000710564F5FB01E158FF4FD801C7018F779F
:100860009070A070B07080349105A105B10539F485
:10087000E7FE0DC080E490E0A0E0B0E004C08FE3AC
:1008800090E0A0E0B0E0E80EF91E0A1F1B1F17FF62
:1008900005C016950795F794E794319687E016956D
:1008A0000795F794E7948A95D1F705C0EE24FF24C5
:1008B0008701EFEFF0E06E2F679566276795902F21
:1008C0009F77D794DD24D7948E2F8695492F462B7A
:1008D000582F5D29B701CA011F910F91FF90EF902A
:1008E000DF900895FC01DB01408151812281622F5C
:1008F0006F7770E0221F2227221F9381892F880F94
:10090000822B282F30E0991F9927991F11969C93CD
:10091000119721153105A9F541155105610571059D
:1009200011F482E037C082E89FEF13969C938E9378
:1009300012979A01AB0167E0220F331F441F551F26
:100940006A95D1F783E08C930DC0220F331F441FAB
:10095000551F12968D919C911397019713969C9316
:100960008E931297203080E0380780E0480780E4BB
:10097000580758F314962D933D934D935C93179716
:1009800008952F3F310579F4411551056105710531
:1009900019F484E08C93089564FF03C081E08C9384
:1009A00012C01C9210C02F57304013963C932E93C8
:1009B000129783E08C9387E0440F551F661F771FC3
:1009C0008A95D1F7706414964D935D936D937C93E3
:1009D000179708951F93DC01FB019C91923008F456
:1009E00047C08081823008F443C0943051F411969E
:1009F0001C91843099F58181682F70E0611B710929
:100A00003FC0843021F0923031F48230B9F18181DD
:100A1000882389F12DC011961C9111978230F1F035
:100A200081811817D9F412962D913C9113978281E8
:100A300093818217930794F028173907BCF0149616
:100A40008D919D910D90BC91A02D24813581468181
:100A50005781281739074A075B0718F4112341F01B
:100A60000AC082179307A407B50740F4112319F0B1
:100A700061E070E005C06FEF7FEF02C060E070E002
:100A8000CB011F910895FC01208125BD95B53181D1
:100A9000832F8295807F892B85BD858184BD86814A
:100AA00083BD222311F0283019F485B5806802C077
:100AB00085B58F7785BD332311F08F9A979829B725
:100AC00093819295990F990F907C848187958827BF
:100AD0008795892B822B89BF85B59281892B85BD0E
:100AE0008FB780688FBF089583BD089585B58E7FC9
:100AF00085BD85B58D7F85BD85B58B7F85BD12BED6
:100B000008950F931F93182F062F0E94760585B521
:100B1000812B85BD04BD1F910F91089590936C00AA
:100B200080936B00089590936A0080936900089504
:100B30001F920F920FB60F9211242F933F934F9352
:100B40005F936F937F938F939F93AF93BF93EF9335
:100B5000FF9380916B0090916C00892B29F0E091BC
:100B60006B00F0916C000995FF91EF91BF91AF91EF
:100B70009F918F917F916F915F914F913F912F91B5
:100B80000F900FBE0F901F9018951F920F920FB6E7
:100B90000F9211242F933F934F935F936F937F9303
:100BA0008F939F93AF93BF93EF93FF9380916900CF
:100BB00090916A00892B29F0E0916900F0916A0018
:100BC0000995FF91EF91BF91AF919F918F917F9187
:100BD0006F915F914F913F912F910F900FBE0F90AA
:100BE0001F901895FC01208123BF93B73181832F7B
:100BF0008295807F892B83BF858182BF86818CBF50
:100C0000222311F0283019F483B7806802C083B71B
:100C10008F7783BF332311F0BB9AC39899B7838131
:100C2000982B8481880F892B89BF83B79281892B68
:100C300083BF8FB780688FBF089582BF08958CBF30
:100C4000089583B78E7F83BF83B78D7F83BF83B7BC
:100C50008B7F83BF12BE08959093710080937000C4
:100C6000089590936F0080936E0008951F920F92E5
:100C70000FB60F9211242F933F934F935F936F936F
:100C80007F938F939F93AF93BF93EF93FF93809145
:100C9000700090917100892B29F0E0917000F09123
:100CA00071000995FF91EF91BF91AF919F918F9145
:100CB0007F916F915F914F913F912F910F900FBE58
:100CC0000F901F9018951F920F920FB60F9211243C
:100CD0002F933F934F935F936F937F938F939F9344
:100CE000AF93BF93EF93FF9380916E0090916F004D
:100CF000892B29F0E0916E00F0916F000995FF912A
:100D0000EF91BF91AF919F918F917F916F915F9183
:100D10004F913F912F910F900FBE0F901F901895FC
:100D2000BE9A6E9A08958FB9779BFECF0895779BF0
:100D3000FECF8FB10895843019F1853048F48130A9
:100D4000C9F0813098F08230B9F0833089F416C050
:100D50008730E1F0883028F48530A1F0863041F406
:100D600013C08830A9F0893019F414C080E30895C5
:100D700080E0089581E3089582E3089583E3089570
:100D800084E3089585E3089586E3089587E308954D
:100D900088E3089589E308950F931F93CF93DF931A
:100DA000EC0182E464E041E00E941B0882E08FB91C
:100DB000779BFECF1FB8779BFECF82E464E040E0D4
:100DC0000E941B088AEF90E00197F1F7779BFECF16
:100DD0001FB182E464E041E00E941B0881E08FB90A
:100DE000779BFECF1FB8779BFECF82E464E040E0A4
:100DF0000E941B088AEF90E00197F1F7779BFECFE6
:100E00000FB117FF03C011958DE201C080E2888306
:100E1000812F6AE00E94BD0B0E949B068983812F6F
:100E20006AE00E94BD0B892F0E949B068A838EE296
:100E30008B83003481F0013418F4002331F00FC0AB
:100E4000003829F0003C59F406C080E309C085E36E
:100E50008C8380E306C082E38C8385E302C089E350
:100E60008C838D83CE01DF91CF911F910F910895D7
:100E700082E464E041E00E941B0880E88FB9779B20
:100E8000FECF84E08FB9779BFECF82E464E040E040
:100E90000E941B088CE792E90197F1F7089582E41C
:100EA00065E041E00E94A90782E464E041E00E941D
:100EB000A90782E467E041E00E94A9078DB1876538
:100EC0008DB9709808950E94210680E00E941F0647
:100ED000089520E030E040E853E40E941F020E94A1
:100EE0004900DC01CB010E941F060895DF93CF93D8
:100EF000CDB7DEB729970FB6F894DEBF0FBECDBFD2
:100F000090E4998398E49A83FE01E60FF11D9181A4
:100F10009B8392E09C838D831E821F8218868FE7BD
:100F20008987CE0103960E94F20529960FB6F894A0
:100F3000DEBF0FBECDBFCF91DF91089582E061E0AB
:100F40000E94760760E070E080E89EE30E946907F7
:100F5000FFCF823429F1833420F4813409F06AC050
:100F600006C08334B1F1843409F064C04BC0413011
:100F700059F42AB381E090E002C0880F991F6A9566
:100F8000E2F7282B2ABB08952AB381E090E002C043
:100F9000880F991F6A95E2F7809582238ABB08958E
:100FA000413059F427B381E090E002C0880F991FC7
:100FB0006A95E2F7282B27BB089527B381E090E0DC
:100FC00002C0880F991F6A95E2F78095822387BB3C
:100FD0000895413059F424B381E090E002C0880FB5
:100FE000991F6A95E2F7282B24BB089524B381E06A
:100FF00090E002C0880F991F6A95E2F780958223DE
:1010000084BB0895413059F421B381E090E002C0DF
:10101000880F991F6A95E2F7282B21BB089521B309
:1010200081E090E002C0880F991F6A95E2F78095F1
:10103000822381BB0895823429F1833420F48134E2
:1010400009F06AC006C08334B1F1843409F064C089
:101050004BC0413059F42BB381E090E002C0880FBF
:10106000991F6A95E2F7282B2BBB08952BB381E0DB
:1010700090E002C0880F991F6A95E2F7809582235D
:101080008BBB0895413059F428B381E090E002C051
:10109000880F991F6A95E2F7282B28BB089528B37B
:1010A00081E090E002C0880F991F6A95E2F7809571
:1010B000822388BB0895413059F425B381E090E044
:1010C00002C0880F991F6A95E2F7282B25BB089567
:1010D00025B381E090E002C0880F991F6A95E2F77E
:1010E0008095822385BB0895413059F422B381E075
:1010F00090E002C0880F991F6A95E2F7282B22BB67
:10110000089522B381E090E002C0880F991F6A958C
:10111000E2F78095822382BB0895823469F083349C
:1011200018F4813429F406C0833441F0843441F04A
:1011300020E00FC029B305C026B303C023B301C00C
:1011400020B381E090E002C0880F991F6A95E2F712
:101150002823822F0895823451F1833418F4813486
:1011600039F408C0833409F43FC0843409F459C009
:1011700060E073C060E040E050E0E1E0F0E089B39F
:101180009F01042E02C0220F331F0A94E2F790E061
:1011900082239323019711F4622B03C0822F809541
:1011A00068234F5F5F4F4830510549F756C060E0F4
:1011B00040E050E0E1E0F0E086B39F01042E02C081
:1011C000220F331F0A94E2F790E0822393230197C2
:1011D00011F4622B03C0822F809568234F5F5F4F0D
:1011E0004830510549F739C060E040E050E0E1E0A7
:1011F000F0E083B39F01042E02C0220F331F0A9434
:10120000E2F790E082239323019711F4622B03C04D
:10121000822F809568234F5F5F4F4830510549F713
:101220001CC060E040E050E0E1E0F0E080B39F01EE
:10123000042E02C0220F331F0A94E2F790E08223AB
:101240009323019711F4622B03C0822F80956823AA
:101250004F5F5F4F4830510549F7862F089582341C
:10126000A9F0833418F4813489F505C08334C9F0BA
:10127000843461F521C02BB381E090E002C0880F77
:10128000991F6A95E2F728272BBB089528B381E0C0
:1012900090E002C0880F991F6A95E2F7282728BBC3
:1012A000089525B381E090E002C0880F991F6A95E8
:1012B000E2F7282725BB089522B381E090E002C021
:1012C000880F991F6A95E2F7282722BB0895823478
:1012D00061F0833418F4813469F405C0833439F043
:1012E000843441F406C06BBB089568BB089565BBA8
:1012F000089562BB0895823479F0833418F4813400
:10130000C9F405C0833469F08434A1F40FC08BB3F1
:10131000607F862B8BBB089588B3607F862B88BB4C
:10132000089585B3607F862B85BB089582B3607F67
:10133000862B82BB0895823471F0833418F4813493
:10134000A9F405C0833459F0843481F40CC08BB304
:101350008F708BBB089588B38F7088BB089585B359
:101360008F7085BB089582B38F7082BB08958234DD
:1013700069F1833420F4813409F088C007C08334D4
:1013800009F444C0843409F081C060C0413091F454
:1013900080B78F7E80BF3AB381E090E002C0880FB3
:1013A000991F6A95E2F7282F209523232ABB2BB398
:1013B000822B0AC02BB381E090E002C0880F991FF6
:1013C0006A95E2F7809582238BBB0895413091F4B2
:1013D00080B78F7E80BF37B381E090E002C0880F76
:1013E000991F6A95E2F7282F2095232327BB28B35E
:1013F000822B0AC028B381E090E002C0880F991FB9
:101400006A95E2F78095822388BB0895413091F474
:1014100080B78F7E80BF34B381E090E002C0880F38
:10142000991F6A95E2F7282F2095232324BB25B323
:10143000822B0AC025B381E090E002C0880F991F7B
:101440006A95E2F78095822385BB0895413099F42F
:1014500080B78F7E80BF31B381E090E002C0880FFB
:10146000991F6A95E2F7282F2095232321BB22B3E9
:10147000822B82BB089522B381E090E002C0880FE6
:10148000991F6A95E2F78095822382BB089583E4D1
:1014900061E041E00E941B0881E08A95F1F783E456
:1014A00061E040E00E941B0884EF91E00197F1F7B2
:1014B00008950F931F93082F182F12951F70412F17
:1014C000417083E462E00E941B081695412F417031
:1014D00083E463E00E941B081695117083E464E0C6
:1014E000412F0E941B08402F441F4427441F83E4C0
:1014F00065E00E941B0883E460E041E00E941B0855
:101500000E94470A102F1F70017083E462E0402F91
:101510000E941B08412F4695417083E463E00E94BE
:101520001B0816951695412F417083E464E00E94D4
:101530001B08169583E465E0412F0E941B080E945A
:10154000470A1F910F910895CF93DF93EC0103C0D9
:101550000E94590A219688818823D1F7DF91CF9183
:1015600008950F931F93082F182F12951F70412F66
:10157000417083E462E00E941B081695412F417080
:1015800083E463E00E941B081695117083E464E015
:10159000412F0E941B08402F441F4427441F83E40F
:1015A00065E00E941B0883E460E040E00E941B08A5
:1015B0000E94470A102F1F70017083E462E0402FE1
:1015C0000E941B08412F4695417083E463E00E940E
:1015D0001B0816951695412F417083E464E00E9424
:1015E0001B08169583E465E0412F0E941B080E94AA
:1015F000470A1F910F91089581E00E94B10A84EF7C
:1016000091E00197F1F708950F931F93CF93DF9324
:101610000E94FC0A8CE00E94B10A00E084E10E9472
:10162000B10A0F5F0031D1F787E50E94590A88E1BE
:101630000E94B10A85E40E94590A88E10E94B10A19
:1016400004EC19E0C8010197F1F78CE40E94590AF3
:1016500088E10E94B10AC8010197F1F783E40E9472
:10166000590A88E10E94B10AC8010197F1F78FE495
:101670000E94590A88E10E94B10AC8010197F1F756
:101680008DE40E94590A88E10E94B10AC8010197BD
:10169000F1F785E40E94590A88E10E94B10AC80165
:1016A0000197F1F710E0C4ECD9E016C088E10E9480
:1016B000B10ACE010197F1F70F5F0930B9F700E0E9
:1016C0008CE10E94B10ACE010197F1F70F5F09305A
:1016D000B9F71F5F133011F000E0E8CF8EE00E94F1
:1016E000B10ADF91CF911F910F91089583E462E0D9
:1016F00041E00E94A90783E463E041E00E94A9075A
:1017000083E464E041E00E94A90783E465E041E0EE
:101710000E94A90783E461E041E00E94A90783E4F5
:1017200060E041E00E94A90782E00E94B10A88E2DD
:101730000E94B10A8EE00E94B10A81E00E94B10AC3
:1017400084EF91E00197F1F708951ABA87E886B916
:1017500080E487B9089597B18F70892B87B9369A3D
:10176000349BFECF83E08A95F1F794B185B1382F91
:1017700020E0290F311DC9010895991B79E004C0AB
:10178000991F961708F0961B881F7A95C9F78095C0
:1017900008952F923F924F925F926F927F928F9215
:1017A0009F92AF92BF92CF92DF92EF92FF920F93F0
:1017B0001F93CF93DF93CDB7DEB7CA1BDB0B0FB6FA
:1017C000F894DEBF0FBECDBF09942A8839884888B7
:1017D0005F846E847D848C849B84AA84B984C8844D
:1017E000DF80EE80FD800C811B81AA81B981CE0F44
:1017F000D11D0FB6F894DEBF0FBECDBFED01089529
:04180000F894FFCF8A
:081804000000000000000000DC
:00000001FF
