:100000000C942A000C94C10D0C94960D0C946B0D5D
:100010000C94E0060C940D070C9447000C944700D8
:100020000C9447000C9447000C947E070C94AB078B
:100030000C9447000C9447000C9447000C94470024
:100040000C9447000C9447000C9447000C94470014
:100050000C94470011241FBECFE5D8E0DEBFCDBF12
:1000600010E0A0E6B0E0EAE9FCE102C005900D92E4
:10007000AE39B107D9F710E0AEE9B0E001C01D928A
:10008000AA3AB107E1F70E94EC0D0C944B0E0C94C8
:100090000000EF92FF920F931F937B018C0120E0F1
:1000A00030E040E05FE40E94190388238CF0C8012F
:1000B000B70120E030E040E05FE40E94C1010E940F
:1000C00049039B01AC01205030404040504806C0DD
:1000D000C801B7010E9449039B01AC01B901CA01E3
:1000E0001F910F91FF90EF900895A0E0B0E0EBE733
:1000F000F0E00C94140EDC012B01FA019C9192307B
:1001000008F439C1EB018881823008F433C194309E
:1001100069F4843009F02FC111969C91119789815F
:10012000981709F428C1A3E9B0E025C1843009F487
:1001300021C18230A9F4923009F01DC19A01AD01AC
:1001400088E0EA010990AE01E90109929E0181501F
:10015000C1F7E201898111969C918923818308C1AD
:10016000923009F407C112962D903C901397EB0141
:100170008A819B811496AD90BD90CD90DC901797AD
:10018000EC80FD800E811F819101281B390BB90184
:1001900037FF04C066277727621B730B6032710537
:1001A0000CF061C0121613066CF537014801062EDB
:1001B00004C096948794779467940A94D2F721E0C8
:1001C00030E040E050E004C0220F331F441F551FB1
:1001D0006A95D2F721503040404050402E213F21B7
:1001E00040235123211531054105510521F021E01E
:1001F00030E040E050E079018A01E628F72808293C
:1002000019293CC0232BD1F1260E371E350146019A
:10021000062E04C096948794779467940A94D2F734
:1002200021E030E040E050E004C0220F331F441FC3
:10023000551F6A95D2F721503040404050402A2146
:100240003B214C215D21211531054105510521F04E
:1002500021E030E040E050E059016A01A628B728CB
:10026000C828D9280BC0821593052CF01C01AA249C
:10027000BB24650103C0EE24FF24870111969C91E5
:10028000D20111968C91981709F445C0992339F041
:10029000A80197012A193B094C095D0906C0A6016E
:1002A00095012E193F09400B510B57FD08C01182D3
:1002B0003382228224833583468357831DC081E0A5
:1002C00081833382228288279927DC01821B930B4A
:1002D000A40BB50B84839583A683B7830DC0220F2F
:1002E000331F441F551F24833583468357838281E0
:1002F000938101979383828324813581468157813D
:10030000DA01C9010197A109B1098F5F9F4FAF4F72
:10031000BF4328F30BC0918333822282EA0CFB1C7B
:100320000C1D1D1DE482F5820683178383E0808304
:10033000248135814681578157FF1AC0C901AA27F8
:1003400097FDA095BA2F81709070A070B0705695EF
:10035000479537952795822B932BA42BB52B848318
:100360009583A683B7838281938101969383828349
:10037000DF0101C0D201CD01CDB7DEB7E2E10C94BF
:10038000300EA0E2B0E0E7ECF1E00C94200E6983BF
:100390007A838B839C832D833E834F835887E9E048
:1003A000EE2EF12CEC0EFD1ECE010196B7010E943F
:1003B00072048E010F5E1F4FCE010596B8010E9498
:1003C00072048A8991E089278A8BC701B801AE013E
:1003D000475E5F4F0E9475000E949D03A096E6E075
:1003E0000C943C0EA0E2B0E0E8EFF1E00C94200E9B
:1003F00069837A838B839C832D833E834F835887C5
:10040000F9E0EF2EF12CEC0EFD1ECE010196B701A6
:100410000E9472048E010F5E1F4FCE010596B80137
:100420000E947204C701B801AE01475E5F4F0E948F
:1004300075000E949D03A096E6E00C943C0EA0E29D
:10044000B0E0E5E2F2E00C94140E69837A838B83CA
:100450009C832D833E834F835887CE010196BE0136
:10046000675F7F4F0E947204CE010596BE016F5EEA
:100470007F4F0E9472049985923088F0898982307A
:10048000C8F0943019F4823051F404C0843029F457
:10049000923081F483E990E0C6C0923049F420E0C4
:1004A0009A858A89981321E02A87CE010996BBC0D4
:1004B000823049F420E09A858A89981321E02A8BBA
:1004C000CE014196B0C02D843E844F8458886D88FB
:1004D0007E888F88988CEE24FF248701AA24BB2471
:1004E000650140E050E060E070E0E0E0F0E0C10174
:1004F00081709070892BE9F0E60CF71C081D191D1E
:100500009A01AB012A0D3B1D4C1D5D1D80E090E062
:10051000A0E0B0E0E614F7040805190520F481E036
:1005200090E0A0E0B0E0BA01A901480F591F6A1F8E
:100530007B1FAA0CBB1CCC1CDD1C97FE08C081E0F5
:1005400090E0A0E0B0E0A82AB92ACA2ADB2A3196B6
:10055000E032F10549F0660C771C881C991C569412
:10056000479437942794C3CFFA85EA892B893C892D
:100570008B859C85280F391F2E5F3F4F17C0CA01FE
:1005800081709070892B61F016950795F794E79428
:1005900080E090E0A0E0B0E8E82AF92A0A2B1B2BC3
:1005A00076956795579547952F5F3F4F77FDE7CF36
:1005B0000CC0440F551F661F771F17FD4160EE0CDE
:1005C000FF1C001F111F21503040403090E05907A0
:1005D00090E0690790E4790760F32B8F3C8FDB0193
:1005E000CA018F779070A070B07080349105A1051A
:1005F000B10561F447FD0AC0E114F10401051105DC
:1006000029F0405C5F4F6F4F7F4F40781A8EFE1786
:1006100011F081E08A8F4D8F5E8F6F8F78A383E01A
:10062000898FCE0149960E949D03A096E2E10C9429
:10063000300EA8E1B0E0EFE1F3E00C94200E698306
:100640007A838B839C832D833E834F83588789E0F5
:10065000E82EF12CEC0EFD1ECE010196B7010E9492
:1006600072048E010F5E1F4FCE010596B8010E94E5
:1006700072048985823040F08989823028F0C70170
:10068000B8010E94EA0401C08FEF6896E6E00C947E
:100690003C0EACE0B0E0EFE4F3E00C94240E698390
:1006A0007A838B839C83CE010196BE016B5F7F4F63
:1006B0000E9472048D81823061F1823050F1843069
:1006C00021F48E81882351F12EC02F81388537FD8A
:1006D00020C06E812F3131051CF06623F9F023C054
:1006E0008EE190E0821B930B29853A854B855C85D2
:1006F00004C056954795379527958A95D2F7662376
:10070000B1F050954095309521953F4F4F4F5F4F39
:100710000EC020E030E040E050E009C02FEF3FEF96
:100720004FEF5FE704C020E030E040E050E8B9015F
:10073000CA012C96E2E00C94400EDF92EF92FF92F9
:100740000F931F93FC01E480F58006811781D1800F
:100750008081823048F480E090E0A0E1B0E0E82AB7
:10076000F92A0A2B1B2BA5C0843009F49FC08230C4
:1007700021F4EE24FF24870105C0E114F1040105F2
:10078000110519F4E0E0F0E096C0628173819FEFFB
:10079000623879070CF05BC022E83FEF261B370B6D
:1007A0002A3131052CF020E030E040E050E02AC052
:1007B000B801A701022E04C0769567955795479515
:1007C0000A94D2F781E090E0A0E0B0E004C0880F86
:1007D000991FAA1FBB1F2A95D2F70197A109B1093A
:1007E0008E219F21A023B1230097A105B10521F0FF
:1007F00081E090E0A0E0B0E09A01AB01282B392B1A
:100800004A2B5B2BDA01C9018F779070A070B07012
:1008100080349105A105B10539F427FF09C0205C9A
:100820003F4F4F4F5F4F04C0215C3F4F4F4F5F4FD3
:10083000E0E0F0E02030A0E03A07A0E04A07A0E4C2
:100840005A0710F0E1E0F0E079018A0127C0603832
:10085000710564F5FB01E158FF4FD801C7018F779F
:100860009070A070B07080349105A105B10539F485
:10087000E7FE0DC080E490E0A0E0B0E004C08FE3AC
:1008800090E0A0E0B0E0E80EF91E0A1F1B1F17FF62
:1008900005C016950795F794E794319687E016956D
:1008A0000795F794E7948A95D1F705C0EE24FF24C5
:1008B0008701EFEFF0E06E2F679566276795902F21
:1008C0009F77D794DD24D7948E2F8695492F462B7A
:1008D000582F5D29B701CA011F910F91FF90EF902A
:1008E000DF900895FC01DB01408151812281622F5C
:1008F0006F7770E0221F2227221F9381892F880F94
:10090000822B282F30E0991F9927991F11969C93CD
:10091000119721153105A9F541155105610571059D
:1009200011F482E037C082E89FEF13969C938E9378
:1009300012979A01AB0167E0220F331F441F551F26
:100940006A95D1F783E08C930DC0220F331F441FAB
:10095000551F12968D919C911397019713969C9316
:100960008E931297203080E0380780E0480780E4BB
:10097000580758F314962D933D934D935C93179716
:1009800008952F3F310579F4411551056105710531
:1009900019F484E08C93089564FF03C081E08C9384
:1009A00012C01C9210C02F57304013963C932E93C8
:1009B000129783E08C9387E0440F551F661F771FC3
:1009C0008A95D1F7706414964D935D936D937C93E3
:1009D000179708951F93DC01FB019C91923008F456
:1009E00047C08081823008F443C0943051F411969E
:1009F0001C91843099F58181682F70E0611B710929
:100A00003FC0843021F0923031F48230B9F18181DD
:100A1000882389F12DC011961C9111978230F1F035
:100A200081811817D9F412962D913C9113978281E8
:100A300093818217930794F028173907BCF0149616
:100A40008D919D910D90BC91A02D24813581468181
:100A50005781281739074A075B0718F4112341F01B
:100A60000AC082179307A407B50740F4112319F0B1
:100A700061E070E005C06FEF7FEF02C060E070E002
:100A8000CB011F910895843019F1853048F48130ED
:100A9000C9F0813098F08230B9F0833089F416C003
:100AA0008730E1F0883028F48530A1F0863041F4B9
:100AB00013C08830A9F0893019F414C080E3089578
:100AC00080E0089581E3089582E3089583E3089523
:100AD00084E3089585E3089586E3089587E3089500
:100AE00088E3089589E3089582E464E041E00E9488
:100AF000DE0880E80E94DB0784E00E94DB0782E4D6
:100B000064E040E00E94DE0881E28A95F1F70895F2
:100B1000EF92FF920F931F938C0182E464E041E017
:100B20000E94DE0882E00E94DB0780E00E94DB0773
:100B300082E464E040E00E94DE0881E2E82E8E2D2F
:100B40008A95F1F70E94DF07F82E82E464E041E025
:100B50000E94DE0881E00E94DB0780E00E94DB0744
:100B600082E464E040E00E94DE08EA94F1F7F7FCDA
:100B7000F1948F2D6AE00E94080E0E944305F8014F
:100B800080838F2D6AE00E94080E892F0E94430502
:100B9000F8018183C8011F910F91FF90EF90089594
:100BA000813051F0813028F0823049F0833081F477
:100BB0000BC080E690E005C088E690E002C082E7C6
:100BC00090E00E94630B089589E790E00E94630B18
:100BD0000895FF920F931F93DF93CF9300D0CDB76B
:100BE000DEB78C01F62E0E94BB0B8FE790E00E94CF
:100BF000630BC8010E94630B85E10E94700B85E1C5
:100C00000E94700B85E10E94700B85E10E94700BC1
:100C100084E890E00E94630BCE0101960E94880553
:100C20000E94630B80EC0E94700B89E890E00E94A8
:100C3000630B8F2D0E94D0050F900F90CF91DF9105
:100C40001F910F91FF9008950F931F93CF93DF9300
:100C50000E94BB0B8CE00E94700B00E084E00E94BD
:100C6000700B0F5F0031D1F787E50E94180B88E108
:100C70000E94700B85E40E94180B88E10E94700BA3
:100C800004EC19E0C8010197F1F78CE40E94180BFD
:100C900088E10E94700BC8010197F1F783E40E947C
:100CA000180B88E10E94700BC8010197F1F78FE4DF
:100CB0000E94180B88E10E94700BC8010197F1F7A0
:100CC0008DE40E94180B88E10E94700BC801019707
:100CD000F1F785E40E94180B88E10E94700BC801AF
:100CE0000197F1F710E0C4ECD9E016C088E10E944A
:100CF000700BCE010197F1F70F5F0930B9F700E0F3
:100D00008CE10E94700BCE010197F1F70F5F093063
:100D1000B9F71F5F133011F000E0E8CF8EE00E94BA
:100D2000700BDF91CF911F910F910895FC012081ED
:100D300025BD95B53181832F8295807F892B85BD17
:100D4000858184BD868183BD222311F0283019F46A
:100D500085B5806802C085B58F7785BD332311F0D6
:100D60008F9A979829B793819295990F990F907CB4
:100D70008481879588278795892B822B89BF85B5A4
:100D80009281892B85BD8FB780688FBF089584BD00
:100D9000089583BD089585B58E7F85BD85B58D7F0A
:100DA00085BD85B58B7F85BD12BE08959093A20049
:100DB0008093A10008959093A00080939F000895D0
:100DC0001F920F920FB60F9211242F933F934F93C0
:100DD0005F936F937F938F939F93AF93BF93EF93A3
:100DE000FF938091A1009091A200892B29F0E091BE
:100DF000A100F091A2000995FF91EF91BF91AF91F1
:100E00009F918F917F916F915F914F913F912F9122
:100E10000F900FBE0F901F9018951F920F920FB654
:100E20000F9211242F933F934F935F936F937F9370
:100E30008F939F93AF93BF93EF93FF9380919F0006
:100E40009091A000892B29F0E0919F00F091A000E3
:100E50000995FF91EF91BF91AF919F918F917F91F4
:100E60006F915F914F913F912F910F900FBE0F9017
:100E70001F901895FC01208123BF93B73181832FE8
:100E80008295807F892B83BF858182BF86818CBFBD
:100E9000222311F0283019F483B7806802C083B789
:100EA0008F7783BF332311F0BB9AC39899B783819F
:100EB000982B8481880F892B89BF83B79281892BD6
:100EC00083BF8FB780688FBF089582BF08958CBF9E
:100ED000089583B78E7F83BF83B78D7F83BF83B72A
:100EE0008B7F83BF12BE08959093A7008093A600C6
:100EF00008959093A5008093A40008951F920F92E7
:100F00000FB60F9211242F933F934F935F936F93DC
:100F10007F938F939F93AF93BF93EF93FF938091B2
:100F2000A6009091A700892B29F0E091A600F091EE
:100F3000A7000995FF91EF91BF91AF919F918F917C
:100F40007F916F915F914F913F912F910F900FBEC5
:100F50000F901F9018951F920F920FB60F921124A9
:100F60002F933F934F935F936F937F938F939F93B1
:100F7000AF93BF93EF93FF938091A4009091A5004E
:100F8000892B29F0E091A400F091A5000995FF912B
:100F9000EF91BF91AF919F918F917F916F915F91F1
:100FA0004F913F912F910F900FBE0F901F9018956A
:100FB000BE9A6E9A08958FB9779BFECF0895779B5E
:100FC000FECF8FB1089582E465E041E00E946C0895
:100FD00082E464E041E00E946C0882E467E041E062
:100FE0000E946C088DB187658DB9709808950E9434
:100FF000690780E00E946707089520E030E040E83C
:1010000053E40E941F020E944900DC01CB010E94B0
:1010100067070895DF93CF93CDB7DEB729970FB653
:10102000F894DEBF0FBECDBF90E4998398E49A8315
:10103000FE01E60FF11D91819B8392E09C838D83DD
:101040001E821F8218868FE78987CE0103960E9431
:101050003A0729960FB6F894DEBF0FBECDBFCF91E9
:10106000DF91089584E462E040E00E946C0884E42B
:1010700063E040E00E946C0882E462E040E00E948D
:101080006C0884E462E041E00E94DE0884E463E0EE
:1010900041E00E94DE0882E462E041E00E94DE0856
:1010A00085B78D7F85BF85B78E7F85BF85B78B7FE1
:1010B00085BF85B7877F85BF84B78F7B84BF8FB798
:1010C00080688FBF8BB780688BBF8BB780648BBF06
:1010D0008BB780628BBF0895823429F1833420F46A
:1010E000813409F06AC006C08334B1F1843409F058
:1010F00064C04BC0413059F42AB381E090E002C093
:10110000880F991F6A95E2F7282B2ABB08952AB306
:1011100081E090E002C0880F991F6A95E2F7809500
:1011200082238ABB0895413059F427B381E090E0CF
:1011300002C0880F991F6A95E2F7282B27BB0895F4
:1011400027B381E090E002C0880F991F6A95E2F70B
:101150008095822387BB0895413059F424B381E000
:1011600090E002C0880F991F6A95E2F7282B24BBF4
:10117000089524B381E090E002C0880F991F6A951A
:10118000E2F78095822384BB0895413059F421B35E
:1011900081E090E002C0880F991F6A95E2F7282B42
:1011A00021BB089521B381E090E002C0880F991F10
:1011B0006A95E2F78095822381BB0895823429F1F4
:1011C000833420F4813409F06AC006C08334B1F15D
:1011D000843409F064C04BC0413059F42BB381E032
:1011E00090E002C0880F991F6A95E2F7282B2BBB6D
:1011F00008952BB381E090E002C0880F991F6A9593
:10120000E2F7809582238BBB0895413059F428B3CF
:1012100081E090E002C0880F991F6A95E2F7282BC1
:1012200028BB089528B381E090E002C0880F991F81
:101230006A95E2F78095822388BB0895413059F47E
:1012400025B381E090E002C0880F991F6A95E2F70C
:10125000282B25BB089525B381E090E002C0880FBC
:10126000991F6A95E2F78095822385BB08954130E6
:1012700059F422B381E090E002C0880F991F6A956B
:10128000E2F7282B22BB089522B381E090E002C050
:10129000880F991F6A95E2F78095822382BB089593
:1012A000823469F0833418F4813429F406C083341D
:1012B00041F0843441F020E00FC029B305C026B3CB
:1012C00003C023B301C020B381E090E002C0880FC7
:1012D000991F6A95E2F72823822F0895823451F1ED
:1012E000833418F4813439F408C0833409F43FC0DE
:1012F000843409F459C060E073C060E040E050E01D
:10130000E1E0F0E089B39F01042E02C0220F331FF9
:101310000A94E2F790E082239323019711F4622B61
:1013200003C0822F809568234F5F5F4F483051057F
:1013300049F756C060E040E050E0E1E0F0E086B3FD
:101340009F01042E02C0220F331F0A94E2F790E09F
:1013500082239323019711F4622B03C0822F80957F
:1013600068234F5F5F4F4830510549F739C060E04F
:1013700040E050E0E1E0F0E083B39F01042E02C0C2
:10138000220F331F0A94E2F790E082239323019700
:1013900011F4622B03C0822F809568234F5F5F4F4B
:1013A0004830510549F71CC060E040E050E0E1E002
:1013B000F0E080B39F01042E02C0220F331F0A9475
:1013C000E2F790E082239323019711F4622B03C08C
:1013D000822F809568234F5F5F4F4830510549F752
:1013E000862F08958234A9F0833418F4813489F566
:1013F00005C08334C9F0843461F521C02BB381E08A
:1014000090E002C0880F991F6A95E2F728272BBB4E
:10141000089528B381E090E002C0880F991F6A9573
:10142000E2F7282728BB089525B381E090E002C0A9
:10143000880F991F6A95E2F7282725BB089522B3E4
:1014400081E090E002C0880F991F6A95E2F7282793
:1014500022BB0895823461F0833418F4813469F436
:1014600005C0833439F0843441F406C06BBB089561
:1014700068BB089565BB089562BB0895823479F016
:10148000833418F48134C9F405C0833469F084349A
:10149000A1F40FC08BB3607F862B8BBB089588B3FC
:1014A000607F862B88BB089585B3607F862B85BBC4
:1014B000089582B3607F862B82BB0895823471F0D9
:1014C000833418F48134A9F405C0833459F084348A
:1014D00081F40CC08BB38F708BBB089588B38F7071
:1014E00088BB089585B38F7085BB089582B38F70D4
:1014F00082BB0895823469F1833420F4813409F089
:1015000088C007C0833409F444C0843409F081C022
:1015100060C0413091F480B78F7E80BF3AB381E0E4
:1015200090E002C0880F991F6A95E2F7282F209556
:1015300023232ABB2BB3822B0AC02BB381E090E07C
:1015400002C0880F991F6A95E2F7809582238BBBB2
:101550000895413091F480B78F7E80BF37B381E02A
:1015600090E002C0880F991F6A95E2F7282F209516
:10157000232327BB28B3822B0AC028B381E090E045
:1015800002C0880F991F6A95E2F78095822388BB75
:101590000895413091F480B78F7E80BF34B381E0ED
:1015A00090E002C0880F991F6A95E2F7282F2095D6
:1015B000232324BB25B3822B0AC025B381E090E00E
:1015C00002C0880F991F6A95E2F78095822385BB38
:1015D0000895413099F480B78F7E80BF31B381E0A8
:1015E00090E002C0880F991F6A95E2F7282F209596
:1015F000232321BB22B3822B82BB089522B381E037
:1016000090E002C0880F991F6A95E2F780958223C7
:1016100082BB089583E461E041E00E94DE0881E03E
:101620008A95F1F783E461E040E00E94DE080895C6
:101630000F931F93082F182F12951F70412F417081
:1016400083E462E00E94DE081695412F417083E436
:1016500063E00E94DE081695117083E464E0412F78
:101660000E94DE08402F441F4427441F83E465E0A6
:101670000E94DE0883E460E041E00E94DE080E94F0
:101680000A0B102F1F70017083E462E0402F0E944C
:10169000DE08412F4695417083E463E00E94DE0836
:1016A00016951695412F417083E464E00E94DE0890
:1016B000169583E465E0412F0E94DE080E940A0B24
:1016C0001F910F910895CF93DF93EC0103C00E9407
:1016D000180B219688818823D1F7DF91CF91089547
:1016E0000F931F93082F182F12951F70412F4170D1
:1016F00083E462E00E94DE081695412F417083E486
:1017000063E00E94DE081695117083E464E0412FC7
:101710000E94DE08402F441F4427441F83E465E0F5
:101720000E94DE0883E460E040E00E94DE080E9440
:101730000A0B102F1F70017083E462E0402F0E949B
:10174000DE08412F4695417083E463E00E94DE0885
:1017500016951695412F417083E464E00E94DE08DF
:10176000169583E465E0412F0E94DE080E940A0B73
:101770001F910F91089581E00E94700B84EF91E01A
:101780000197F1F7089583E462E041E00E946C085C
:1017900083E463E041E00E946C0883E464E041E09C
:1017A0000E946C0883E465E041E00E946C0883E4D9
:1017B00061E041E00E946C0883E460E041E00E9447
:1017C0006C0882E00E94700B88E20E94700B8EE031
:1017D0000E94700B81E00E94700B84EF91E00197F2
:1017E000F1F708958F929F92AF92BF92CF92DF92BE
:1017F000EF92FF920F931F93DF93CF93CDB7DEB796
:1018000028970FB6F894DEBF0FBECDBF84E0898362
:1018100085E08A8386E08B8387E08C8383E38D83F6
:1018200086E38E8389E38F8383E2888796E4C92EDB
:10183000FF24DD244E010894811C911C85E0A82E14
:10184000B12CAC0EBD1E1DC00F2D10E0F401E00F39
:10185000F11FE08084E46E2D41E00E94DE0882E406
:1018600062E00E945009813031F40A0D1B1DF8011D
:10187000C080DD24D39484E46E2D40E00E94DE0815
:10188000F394DD2019F4F3E0FF15F0F68C2D289683
:101890000FB6F894DEBF0FBECDBFCF91DF911F9181
:1018A0000F91FF90EF90DF90CF90BF90AF909F90FF
:1018B0008F9008958F929F92AF92BF92CF92DF92B6
:1018C000EF92FF920F931F93DF93CF93CDB7DEB7C5
:1018D00028970FB6F894DEBF0FBECDBF84E0898392
:1018E00085E08A8386E08B8387E08C8382E38D8327
:1018F00085E38E8388E38F8380E3888736E4C32E75
:10190000FF24DD244E010894811C911C25E0A22EA9
:10191000B12CAC0EBD1E1DC00F2D10E0F401E00F68
:10192000F11FE08084E46E2D41E00E94DE0884E433
:1019300063E00E945009813031F40A0D1B1DF8014B
:10194000C080DD24D39484E46E2D40E00E94DE0844
:10195000F394DD2019F4F3E0FF15F0F68C2D2896B2
:101960000FB6F894DEBF0FBECDBFCF91DF911F91B0
:101970000F91FF90EF90DF90CF90BF90AF909F902E
:101980008F9008958F929F92AF92BF92CF92DF92E5
:10199000EF92FF920F931F93DF93CF93CDB7DEB7F4
:1019A00028970FB6F894DEBF0FBECDBF84E08983C1
:1019B00085E08A8386E08B8387E08C8381E38D8357
:1019C00084E38E8387E38F838AE28887FF24DD2484
:1019D00056E4C52E4E010894811C911C45E0A42EAE
:1019E000B12CAC0EBD1E1DC00F2D10E0F401E00F98
:1019F000F11FE08084E46E2D41E00E94DE0884E463
:101A000062E00E945009813031F40A0D1B1DF8017B
:101A1000C080DD24D39484E46E2D40E00E94DE0873
:101A2000F394DD2019F4F3E0FF15F0F68C2D2896E1
:101A30000FB6F894DEBF0FBECDBFCF91DF911F91DF
:101A40000F91FF90EF90DF90CF90BF90AF909F905D
:101A50008F90089584E464E041E00E946C0884E47F
:101A600065E041E00E946C0884E466E041E00E9489
:101A70006C0884E467E041E00E946C0884E464E060
:101A800040E00E94DE0884E465E040E00E94DE0859
:101A900084E466E040E00E94DE0884E467E040E021
:101AA0000E94DE0808951ABA87E886B980E487B9EB
:101AB000089597B18F70892B87B9369A349BFECFE2
:101AC00083E08A95F1F794B185B1382F20E0290F92
:101AD000311DC90108951F920F920FB60F92112464
:101AE0002F933F934F935F936F937F938F939F9326
:101AF000AF93BF93EF93FF930E94BB0B0E94F20B37
:101B00000E94180B81E08093A800FF91EF91BF9194
:101B1000AF919F918F917F916F915F914F913F9185
:101B20002F910F900FBE0F901F9018951F920F923C
:101B30000FB60F9211242F933F934F935F936F93A0
:101B40007F938F939F93AF93BF93EF93FF930E94E5
:101B5000BB0B0E945A0C0E94180B81E08093A800D6
:101B6000FF91EF91BF91AF919F918F917F916F9175
:101B70005F914F913F912F910F900FBE0F901F904B
:101B800018951F920F920FB60F9211242F933F9327
:101B90004F935F936F937F938F939F93AF93BF9375
:101BA000EF93FF930E94BB0B0E94C20C0E94180B84
:101BB00081E08093A800FF91EF91BF91AF919F9139
:101BC0008F917F916F915F914F913F912F910F90E6
:101BD0000FBE0F901F901895CF93DF930E9432088D
:101BE0000E942A0D0E94E3070E9474050E94C30B05
:101BF0000E942406C8EAD1E66091A80080919B006B
:101C000090919C000E94E905CE010197F1F7F4CF75
:101C1000991B79E004C0991F961708F0961B881F3E
:101C20007A95C9F7809508952F923F924F925F92CF
:101C30006F927F928F929F92AF92BF92CF92DF92DC
:101C4000EF92FF920F931F93CF93DF93CDB7DEB741
:101C5000CA1BDB0B0FB6F894DEBF0FBECDBF0994D5
:101C60002A88398848885F846E847D848C849B842C
:101C7000AA84B984C884DF80EE80FD800C811B813A
:101C8000AA81B981CE0FD11D0FB6F894DEBF0FBE69
:0A1C9000CDBFED010895F894FFCFD9
:101C9A005354414E444259004F5045524154494FC2
:101CAA004E004E4F524D414C004552524F52005336
:101CBA0045543A004352543A0053544154453A0069
:0E1CCA00323500000000000000000090000015
:00000001FF
