:100000000C942A000C94F1110C94B8110C94661104
:100010000C9445090C9472090C9447000C94FE0949
:100020000C9447000C942D0A0C94DB0A0C94080BDA
:100030000C9447000C9447000C9447000C94470024
:100040000C94A00E0C9447000C9447000C944700AD
:100050000C94470011241FBECFE5D8E0DEBFCDBF12
:1000600011E0A0E6B0E0EAEDF7E202C005900D92E3
:10007000A63AB107D9F711E0A6EAB1E001C01D9296
:10008000A23CB107E1F70E9418130C94EB130C94F7
:100090000000EF92FF920F931F937B018C0120E0F1
:1000A00030E040E05FE40E94C50388238CF0C80183
:1000B000B70120E030E040E05FE40E94C1010E940F
:1000C00053049B01AC01205030404040504806C0D2
:1000D000C801B7010E9453049B01AC01B901CA01D8
:1000E0001F910F91FF90EF900895A0E0B0E0EBE733
:1000F000F0E00C94B413DC012B01FA019C919230D6
:1001000008F439C1EB018881823008F433C194309E
:1001100069F4843009F02FC111969C91119789815F
:10012000981709F428C1A0E9B0E025C1843009F48A
:1001300021C18230A9F4923009F01DC19A01AD01AC
:1001400088E0EA010990AE01E90109929E0181501F
:10015000C1F7E201898111969C918923818308C1AD
:10016000923009F407C112962D903C901397EB0141
:100170008A819B811496AD90BD90CD90DC901797AD
:10018000EC80FD800E811F819101281B390BB90184
:1001900037FF04C066277727621B730B6032710537
:1001A0000CF061C0121613066CF537014801062EDB
:1001B00004C096948794779467940A94D2F721E0C8
:1001C00030E040E050E004C0220F331F441F551FB1
:1001D0006A95D2F721503040404050402E213F21B7
:1001E00040235123211531054105510521F021E01E
:1001F00030E040E050E079018A01E628F72808293C
:1002000019293CC0232BD1F1260E371E350146019A
:10021000062E04C096948794779467940A94D2F734
:1002200021E030E040E050E004C0220F331F441FC3
:10023000551F6A95D2F721503040404050402A2146
:100240003B214C215D21211531054105510521F04E
:1002500021E030E040E050E059016A01A628B728CB
:10026000C828D9280BC0821593052CF01C01AA249C
:10027000BB24650103C0EE24FF24870111969C91E5
:10028000D20111968C91981709F445C0992339F041
:10029000A80197012A193B094C095D0906C0A6016E
:1002A00095012E193F09400B510B57FD08C01182D3
:1002B0003382228224833583468357831DC081E0A5
:1002C00081833382228288279927DC01821B930B4A
:1002D000A40BB50B84839583A683B7830DC0220F2F
:1002E000331F441F551F24833583468357838281E0
:1002F000938101979383828324813581468157813D
:10030000DA01C9010197A109B1098F5F9F4FAF4F72
:10031000BF4328F30BC0918333822282EA0CFB1C7B
:100320000C1D1D1DE482F5820683178383E0808304
:10033000248135814681578157FF1AC0C901AA27F8
:1003400097FDA095BA2F81709070A070B0705695EF
:10035000479537952795822B932BA42BB52B848318
:100360009583A683B7838281938101969383828349
:10037000DF0101C0D201CD01CDB7DEB7E2E10C94BF
:10038000D013A0E2B0E0E7ECF1E00C94C013698375
:100390007A838B839C832D833E834F835887E9E048
:1003A000EE2EF12CEC0EFD1ECE010196B7010E943F
:1003B00044068E010F5E1F4FCE010596B8010E94C4
:1003C00044068A8991E089278A8BC701B801AE016A
:1003D000475E5F4F0E9475000E946F05A096E6E0A1
:1003E0000C94DC13A0E2B0E0E8EFF1E00C94C01351
:1003F00069837A838B839C832D833E834F835887C5
:10040000F9E0EF2EF12CEC0EFD1ECE010196B701A6
:100410000E9444068E010F5E1F4FCE010596B80163
:100420000E944406C701B801AE01475E5F4F0E94BB
:1004300075000E946F05A096E6E00C94DC13A0E224
:10044000B0E0E5E2F2E00C94B41369837A838B8325
:100450009C832D833E834F835887CE010196BE0136
:10046000675F7F4F0E944406CE010596BE016F5E16
:100470007F4F0E9444069985923088F089898230A6
:10048000C8F0943019F4823051F404C0843029F457
:10049000923081F480E990E0C6C0923049F420E0C7
:1004A0009A858A89981321E02A87CE010996BBC0D4
:1004B000823049F420E09A858A89981321E02A8BBA
:1004C000CE014196B0C02D843E844F8458886D88FB
:1004D0007E888F88988CEE24FF248701AA24BB2471
:1004E000650140E050E060E070E0E0E0F0E0C10174
:1004F00081709070892BE9F0E60CF71C081D191D1E
:100500009A01AB012A0D3B1D4C1D5D1D80E090E062
:10051000A0E0B0E0E614F7040805190520F481E036
:1005200090E0A0E0B0E0BA01A901480F591F6A1F8E
:100530007B1FAA0CBB1CCC1CDD1C97FE08C081E0F5
:1005400090E0A0E0B0E0A82AB92ACA2ADB2A3196B6
:10055000E032F10549F0660C771C881C991C569412
:10056000479437942794C3CFFA85EA892B893C892D
:100570008B859C85280F391F2E5F3F4F17C0CA01FE
:1005800081709070892B61F016950795F794E79428
:1005900080E090E0A0E0B0E8E82AF92A0A2B1B2BC3
:1005A00076956795579547952F5F3F4F77FDE7CF36
:1005B0000CC0440F551F661F771F17FD4160EE0CDE
:1005C000FF1C001F111F21503040403090E05907A0
:1005D00090E0690790E4790760F32B8F3C8FDB0193
:1005E000CA018F779070A070B07080349105A1051A
:1005F000B10561F447FD0AC0E114F10401051105DC
:1006000029F0405C5F4F6F4F7F4F40781A8EFE1786
:1006100011F081E08A8F4D8F5E8F6F8F78A383E01A
:10062000898FCE0149960E946F05A096E2E10C9455
:10063000D013A8E1B0E0EFE1F3E00C94BC136983C0
:100640007A838B839C832D833E834F835887B9E0C5
:10065000EB2EF12CEC0EFD1ECE010196B7010E948F
:1006600044068E010F5E1F4FCE010596B8010E9411
:1006700044062985223008F47EC03989323010F4CE
:10068000B8017CC08A859A8989278A87243011F02D
:10069000223031F4231709F06EC060E970E06EC0BB
:1006A000343039F41D861E861F86188A1C861B86E8
:1006B00004C0323021F484E08987B7015FC02B8504
:1006C0003C858B899C89281B390B3C872B87ED84C3
:1006D000FE840F851889AD88BE88CF88D88CEA142F
:1006E000FB040C051D0540F4EE0CFF1C001F111F40
:1006F000215030403C872B8720E030E040E050E044
:1007000080E090E0A0E0B0E460E070E0EA14FB0478
:100710000C051D0540F0282B392B4A2B5B2BEA18C2
:10072000FB080C091D09B695A79597958795EE0CC2
:10073000FF1C001F111F6F5F7F4F6F31710531F775
:10074000DA01C9018F779070A070B0708034910584
:10075000A105B10561F427FD0AC0E114F10401050A
:10076000110529F0205C3F4F4F4F5F4F20782D87B8
:100770003E874F87588BBE01675F7F4FCB010E943A
:100780006F056896EAE00C94D813A8E1B0E0EBECB2
:10079000F3E00C94C01369837A838B839C832D834D
:1007A0003E834F83588789E0E82EF12CEC0EFD1E26
:1007B000CE010196B7010E9444068E010F5E1F4FC5
:1007C000CE010596B8010E9444068985823040F02A
:1007D0008989823028F0C701B8010E94BC0601C097
:1007E0008FEF6896E6E00C94DC13A8E0B0E0EBEF46
:1007F000F3E00C94BD139B01AC0183E08983DA0123
:10080000C9018827B7FD83959927AA27BB27B82E4A
:10081000211531054105510519F482E089833AC05B
:100820008823A9F0203080E0380780E0480780E87E
:10083000580729F460E070E080E09FEC30C0EE24BF
:10084000FF248701E21AF30A040B150B02C0790199
:100850008A018EE1C82ED12CDC82CB82ED82FE8211
:100860000F831887C801B7010E9420050197181649
:10087000190684F4082E04C0EE0CFF1C001F111F83
:100880000A94D2F7ED82FE820F831887C81AD90A1C
:10089000DC82CB82BA82CE0101960E946F05289637
:1008A000E9E00C94D913ACE0B0E0E9E5F4E00C9495
:1008B000C41369837A838B839C83CE010196BE0126
:1008C0006B5F7F4F0E9444068D81823061F18230E0
:1008D00050F1843021F48E81882351F12EC02F8174
:1008E000388537FD20C06E812F3131051CF066231D
:1008F000F9F023C08EE190E0821B930B29853A85A5
:100900004B855C8504C056954795379527958A9504
:10091000D2F76623B1F050954095309521953F4F21
:100920004F4F5F4F0EC020E030E040E050E009C084
:100930002FEF3FEF4FEF5FE704C020E030E040E0F3
:1009400050E8B901CA012C96E2E00C94E013A8E04B
:10095000B0E0EDEAF4E00C94BC137B018C0161156E
:1009600071058105910519F482E0898360C083E0F7
:1009700089838EE1C82ED12CDC82CB82ED82FE826F
:100980000F831887C801B7010E942005FC01319729
:10099000F7FF3BC0222733272E1B3F0B570168016F
:1009A000022E04C0D694C794B794A7940A94D2F7A1
:1009B00040E050E060E070E081E090E0A0E0B0E076
:1009C00004C0880F991FAA1FBB1F2A95D2F7019751
:1009D000A109B1098E219F21A023B1230097A10570
:1009E000B10521F041E050E060E070E04A295B2968
:1009F0006C297D294D835E836F8378878EE190E03B
:100A00008E1B9F0B9C838B8312C0309781F00E2E20
:100A100004C0EE0CFF1C001F111F0A94D2F7ED82D8
:100A2000FE820F831887CE1ADF0ADC82CB821A82FD
:100A3000CE0101960E946F052896EAE00C94D81327
:100A4000EF92FF920F931F937B018C0180E0E816D9
:100A500080E0F80681E0080780E0180788F48FEF4F
:100A6000E816F1040105110531F028F088E090E066
:100A7000A0E0B0E017C080E090E0A0E0B0E012C0DD
:100A800080E0E81680E0F80680E0080781E01807BB
:100A900028F088E190E0A0E0B0E004C080E190E0C0
:100AA000A0E0B0E020E230E040E050E0281B390B4D
:100AB0004A0B5B0B04C016950795F794E7948A954B
:100AC000D2F7F701E856FF4F8081281B3109410911
:100AD0005109C9011F910F91FF90EF900895DF9286
:100AE000EF92FF920F931F93FC01E480F580068143
:100AF0001781D1808081823048F480E090E0A0E1CD
:100B0000B0E0E82AF92A0A2B1B2BA5C0843009F48F
:100B10009FC0823021F4EE24FF24870105C0E11438
:100B2000F1040105110519F4E0E0F0E096C06281DE
:100B300073819FEF623879070CF05BC022E83FEFCA
:100B4000261B370B2A3131052CF020E030E040E045
:100B500050E02AC0B801A701022E04C0769567951F
:100B6000579547950A94D2F781E090E0A0E0B0E075
:100B700004C0880F991FAA1FBB1F2A95D2F701979F
:100B8000A109B1098E219F21A023B1230097A105BE
:100B9000B10521F081E090E0A0E0B0E09A01AB0166
:100BA000282B392B4A2B5B2BDA01C9018F779070E8
:100BB000A070B07080349105A105B10539F427FF0C
:100BC00009C0205C3F4F4F4F5F4F04C0215C3F4F37
:100BD0004F4F5F4FE0E0F0E02030A0E03A07A0E0A8
:100BE0004A07A0E45A0710F0E1E0F0E079018A0139
:100BF00027C06038710564F5FB01E158FF4FD8014B
:100C0000C7018F779070A070B07080349105A105F6
:100C1000B10539F4E7FE0DC080E490E0A0E0B0E05B
:100C200004C08FE390E0A0E0B0E0E80EF91E0A1FD8
:100C30001B1F17FF05C016950795F794E79431968B
:100C400087E016950795F794E7948A95D1F705C044
:100C5000EE24FF248701EFEFF0E06E2F6795662703
:100C60006795902F9F77D794DD24D7948E2F869504
:100C7000492F462B582F5D29B701CA011F910F91AB
:100C8000FF90EF90DF900895FC01DB0140815181DE
:100C90002281622F6F7770E0221F2227221F93810B
:100CA000892F880F822B282F30E0991F9927991FB1
:100CB00011969C93119721153105A9F54115510500
:100CC0006105710511F482E037C082E89FEF139649
:100CD0009C938E9312979A01AB0167E0220F331F0A
:100CE000441F551F6A95D1F783E08C930DC0220FE6
:100CF000331F441F551F12968D919C911397019796
:100D000013969C938E931297203080E0380780E0F2
:100D1000480780E4580758F314962D933D934D935C
:100D20005C93179708952F3F310579F441155105CC
:100D30006105710519F484E08C93089564FF03C084
:100D400081E08C9312C01C9210C02F573040139634
:100D50003C932E93129783E08C9387E0440F551FAA
:100D6000661F771F8A95D1F7706414964D935D9333
:100D70006D937C93179708951F93DC01FB019C9161
:100D8000923008F447C08081823008F443C0943028
:100D900051F411961C91843099F58181682F70E08F
:100DA000611B71093FC0843021F0923031F48230F0
:100DB000B9F18181882389F12DC011961C91119779
:100DC0008230F1F081811817D9F412962D913C915F
:100DD0001397828193818217930794F0281739071C
:100DE000BCF014968D919D910D90BC91A02D248105
:100DF000358146815781281739074A075B0718F460
:100E0000112341F00AC082179307A407B50740F4E5
:100E1000112319F061E070E005C06FEF7FEF02C0B1
:100E200060E070E0CB011F910895843019F18530A6
:100E300048F48130C9F0813098F08230B9F08330C5
:100E400089F416C08730E1F0883028F48530A1F0AD
:100E5000863041F413C08830A9F0893019F414C0E9
:100E600080E3089580E0089581E3089582E3089582
:100E700083E3089584E3089585E3089586E3089560
:100E800087E3089588E3089589E30895853309F198
:100E9000863360F48233B9F0833318F4813389F4F4
:100EA0000EC0833391F0843361F411C08733A9F00D
:100EB000873388F0883399F0893319F412C081E0C0
:100EC000089580E0089582E0089583E0089584E025
:100ED000089585E0089586E0089587E0089588E004
:100EE000089589E008950F931F9382E464E041E040
:100EF0000E943B0C82E00E94380B80E00E94380B7D
:100F000082E464E040E00E943B0C05E8802F8A9573
:100F1000F1F70E943C0B182F82E464E041E00E944C
:100F20003B0C81E00E94380B80E00E94380B82E489
:100F300064E040E00E943B0C0A95F1F717FD119523
:100F4000812F6AE00E9481130E94150780939C0103
:100F5000812F6AE00E948113892F0E9415078093D8
:100F60009D011F910F9108950E94400B82E464E05F
:100F700041E00E943B0C80E80E94380B84E00E9414
:100F8000380B82E464E040E00E943B0C85E88A95DF
:100F9000F1F70895813051F0813028F0823049F026
:100FA000833081F40BC080E690E005C088E690E0D5
:100FB00002C082E790E00E943F0F089589E790E029
:100FC0000E943F0F0895DF92EF92FF920F931F93BD
:100FD0008C01D62E7A010E94970F8FE790E00E9435
:100FE0003F0FC80162E00E942C0F85E10E944C0F68
:100FF00085E10E944C0F85E10E944C0F85E10E9423
:101000004C0F84E890E00E943F0FC70162E00E940D
:101010002C0F80EC0E944C0F89E890E00E943F0F5B
:101020008D2D0E94CA071F910F91FF90EF90DF90C6
:1010300008950F931F93CF93DF930E94970F10E0B3
:1010400085E10E944C0F1F5F1031D1F787E50E94A8
:10105000E10E88E10E944C0F88EE93E024E630E038
:10106000F9013197F1F70197D9F785E40E94E10E74
:1010700088E10E944C0F88EE93E024E630E0F9010D
:101080003197F1F70197D9F78CE40E94E10E88E1DE
:101090000E944C0F88EE93E024E630E0F90131978E
:1010A000F1F70197D9F783E40E94E10E88E10E94ED
:1010B0004C0F88EE93E024E630E0F9013197F1F728
:1010C0000197D9F78FE40E94E10E88E10E944C0F4E
:1010D00088EE93E024E630E0F9013197F1F70197CB
:1010E000D9F78DE40E94E10E88E10E944C0F88EE52
:1010F00093E024E630E0F9013197F1F70197D9F751
:1011000085E40E94E10E88E10E944C0F88EE93E096
:1011100024E630E0F9013197F1F70197D9F700E0C3
:10112000C4E6D0E01EC088E10E944C0F88EE93E038
:10113000FE013197F1F70197D9F71F5F193099F741
:1011400010E08CE10E944C0F88EE93E0FE01319795
:10115000F1F70197D9F71F5F193099F70F5F033047
:1011600011F010E0E0CF8EE00E944C0FDF91CF91A4
:101170001F910F9108950E949F0F0895FC012081F7
:1011800025BD95B53181832F8295807F892B85BDC3
:10119000858184BD868183BD222311F0283019F416
:1011A00085B5806802C085B58F7785BD332311F082
:1011B0008F9A979829B793819295990F990F907C60
:1011C0008481879588278795892B822B89BF85B550
:1011D0008E7F85BD95B52281822F8170892B85BD3B
:1011E00085B58D7F85BD45B530E0C90182709070B1
:1011F000880F991F482B45BD85B58B7F85BD85B56B
:1012000024703070220F331F220F331F822B85BDB5
:101210008FB780688FBF089595B59E7F95BD25B522
:10122000962F9170922B95BD95B59D7F95BD95B5E7
:1012300070E09B0122703070220F331F922B95BDFE
:1012400095B59B7F95BD95B564707070660F771FDF
:10125000660F771F962B95BD84BD089583BD0895B5
:1012600085B58E7F85BD85B58D7F85BD85B58B7F29
:1012700085BD12BE08959093AA018093A901089597
:101280009093A8018093A70108951F920F920FB623
:101290000F9211242F933F934F935F936F937F93FC
:1012A0008F939F93AF93BF93EF93FF938091A90187
:1012B0009091AA01892B29F0E091A901F091AA014E
:1012C0000995FF91EF91BF91AF919F918F917F9180
:1012D0006F915F914F913F912F910F900FBE0F90A3
:1012E0001F9018951F920F920FB60F9211242F93F3
:1012F0003F934F935F936F937F938F939F93AF939E
:10130000BF93EF93FF938091A7019091A801892B40
:1013100029F0E091A701F091A8010995FF91EF91C3
:10132000BF91AF919F918F917F916F915F914F91FD
:101330003F912F910F900FBE0F901F901895FC01B9
:10134000808191818C608FBD9EBD878190859DBD80
:101350008CBD858196819BBD8ABD29B79481990FEB
:10136000990F83818295807F892B822B89BF8EB5CF
:101370002281822B8EBD8EB58E7F8EBD9EB5822F33
:101380008170892B8EBD8EB58D7F8EBD4EB530E0C0
:10139000C90182709070880F991F482B4EBD8EB581
:1013A0008B7F8EBD8EB524703070220F331F220FBD
:1013B000331F822B8EBD8FB780688FBF08952EB5E7
:1013C000262B2EBD9DBD8CBD08959BBD8ABD089565
:1013D0008EB58E7F8EBD8EB58D7F8EBD8EB58B7F8B
:1013E0008EBD1DBC1CBC08959093AF018093AE01CF
:1013F00008959093AD018093AC0108951F920F92D0
:101400000FB60F9211242F933F934F935F936F93D7
:101410007F938F939F93AF93BF93EF93FF931DBCE5
:101420001CBC8091AE019091AF01892B29F0E09115
:10143000AE01F091AF010995FF91EF91BF91AF918E
:101440009F918F917F916F915F914F913F912F91DC
:101450000F900FBE0F901F9018951F920F920FB60E
:101460000F9211242F933F934F935F936F937F932A
:101470008F939F93AF93BF93EF93FF938091AC01B2
:101480009091AD01892B29F0E091AC01F091AD0173
:101490000995FF91EF91BF91AF919F918F917F91AE
:1014A0006F915F914F913F912F910F900FBE0F90D1
:1014B0001F901895FC01208123BF93B73181832FA2
:1014C0008295807F892B83BF858182BF86818CBF77
:1014D000222311F0283019F483B7806802C083B743
:1014E0008F7783BF332311F0BB9AC39899B7838159
:1014F000982B8481880F892B89BF83B78E7F83BF08
:1015000093B72281822F8170892B83BF83B78D7F10
:1015100083BF43B730E0C90182709070880F991F74
:10152000482B43BF83B78B7F83BF83B72470307052
:10153000220F331F220F331F822B83BF8FB7806888
:101540008FBF089593B79E7F93BF23B7962F917057
:10155000922B93BF93B79D7F93BF93B770E09B018E
:1015600022703070220F331F922B93BF93B79B7F53
:1015700093BF93B764707070660F771F660F771F05
:10158000962B93BF82BF08958CBF089583B78E7F3B
:1015900083BF83B78D7F83BF83B78B7F83BF12BE2B
:1015A00008959093B4018093B30108959093B2018C
:1015B0008093B10108951F920F920FB60F921124DC
:1015C0002F933F934F935F936F937F938F939F934B
:1015D000AF93BF93EF93FF938091B3019091B401C8
:1015E000892B29F0E091B301F091B4010995FF91A5
:1015F000EF91BF91AF919F918F917F916F915F918B
:101600004F913F912F910F900FBE0F901F90189503
:101610001F920F920FB60F9211242F933F934F9367
:101620005F936F937F938F939F93AF93BF93EF934A
:10163000FF938091B1019091B201892B29F0E09143
:10164000B101F091B2010995FF91EF91BF91AF9176
:101650009F918F917F916F915F914F913F912F91CA
:101660000F900FBE0F901F901895BE9A6E9A089516
:101670008FB9779BFECF0895779BFECF8FB10895EA
:1016800082E465E041E00E94C90B82E464E041E04D
:101690000E94C90B82E467E041E00E94C90B8DB152
:1016A00087658DB9709808950E94C60A80E00E94EF
:1016B000C40A089520E030E040E853E40E941F028D
:1016C0000E944900DC01CB010E94C40A0895DF9307
:1016D000CF93CDB7DEB729970FB6F894DEBF0FBE14
:1016E000CDBF90E4998398E49A83FE01E60FF11D43
:1016F00091819B8392E09C838D831E821F8218863A
:101700008FE78987CE0103960E945A0A29960FB661
:10171000F894DEBF0FBECDBFCF91DF91089584E472
:1017200062E040E00E94C90B84E463E040E00E9474
:10173000C90B82E462E040E00E94C90B84E462E0ED
:1017400041E00E943B0C84E463E041E00E943B0CDA
:1017500082E462E041E00E943B0C85B78D7F85BF4B
:1017600085B78E7F85BF85B78B7F85BF85B7877F20
:1017700085BF84B78F7B84BF8FB780688FBF8BB7DF
:1017800080688BBF8BB780648BBF8BB780628BBF49
:101790000895823429F1833420F4813409F06AC039
:1017A00006C08334B1F1843409F064C04BC04130C9
:1017B00059F42AB381E090E002C0880F991F6A951E
:1017C000E2F7282B2ABB08952AB381E090E002C0FB
:1017D000880F991F6A95E2F7809582238ABB089546
:1017E000413059F427B381E090E002C0880F991F7F
:1017F0006A95E2F7282B27BB089527B381E090E094
:1018000002C0880F991F6A95E2F78095822387BBF3
:101810000895413059F424B381E090E002C0880F6C
:10182000991F6A95E2F7282B24BB089524B381E021
:1018300090E002C0880F991F6A95E2F78095822395
:1018400084BB0895413059F421B381E090E002C097
:10185000880F991F6A95E2F7282B21BB089521B3C1
:1018600081E090E002C0880F991F6A95E2F78095A9
:10187000822381BB0895823429F1833420F481349A
:1018800009F06AC006C08334B1F1843409F064C041
:101890004BC0413059F42BB381E090E002C0880F77
:1018A000991F6A95E2F7282B2BBB08952BB381E093
:1018B00090E002C0880F991F6A95E2F78095822315
:1018C0008BBB0895413059F428B381E090E002C009
:1018D000880F991F6A95E2F7282B28BB089528B333
:1018E00081E090E002C0880F991F6A95E2F7809529
:1018F000822388BB0895413059F425B381E090E0FC
:1019000002C0880F991F6A95E2F7282B25BB08951E
:1019100025B381E090E002C0880F991F6A95E2F735
:101920008095822385BB0895413059F422B381E02C
:1019300090E002C0880F991F6A95E2F7282B22BB1E
:10194000089522B381E090E002C0880F991F6A9544
:10195000E2F78095822382BB0895823469F0833454
:1019600018F4813429F406C0833441F0843441F002
:1019700020E00FC029B305C026B303C023B301C0C4
:1019800020B381E090E002C0880F991F6A95E2F7CA
:101990002823822F0895823451F1833418F481343E
:1019A00039F408C0833409F43FC0843409F459C0C1
:1019B00060E073C060E040E050E0E1E0F0E089B357
:1019C0009F01042E02C0220F331F0A94E2F790E019
:1019D00082239323019711F4622B03C0822F8095F9
:1019E00068234F5F5F4F4830510549F756C060E0AC
:1019F00040E050E0E1E0F0E086B39F01042E02C039
:101A0000220F331F0A94E2F790E082239323019779
:101A100011F4622B03C0822F809568234F5F5F4FC4
:101A20004830510549F739C060E040E050E0E1E05E
:101A3000F0E083B39F01042E02C0220F331F0A94EB
:101A4000E2F790E082239323019711F4622B03C005
:101A5000822F809568234F5F5F4F4830510549F7CB
:101A60001CC060E040E050E0E1E0F0E080B39F01A6
:101A7000042E02C0220F331F0A94E2F790E0822363
:101A80009323019711F4622B03C0822F8095682362
:101A90004F5F5F4F4830510549F7862F08958234D4
:101AA000A9F0833418F4813489F505C08334C9F072
:101AB000843461F521C02BB381E090E002C0880F2F
:101AC000991F6A95E2F728272BBB089528B381E078
:101AD00090E002C0880F991F6A95E2F7282728BB7B
:101AE000089525B381E090E002C0880F991F6A95A0
:101AF000E2F7282725BB089522B381E090E002C0D9
:101B0000880F991F6A95E2F7282722BB089582342F
:101B100061F0833418F4813469F405C0833439F0FA
:101B2000843441F406C06BBB089568BB089565BB5F
:101B3000089562BB0895823479F0833418F48134B7
:101B4000C9F405C0833469F08434A1F40FC08BB3A9
:101B5000607F862B8BBB089588B3607F862B88BB04
:101B6000089585B3607F862B85BB089582B3607F1F
:101B7000862B82BB0895823471F0833418F481344B
:101B8000A9F405C0833459F0843481F40CC08BB3BC
:101B90008F708BBB089588B38F7088BB089585B311
:101BA0008F7085BB089582B38F7082BB0895823495
:101BB00069F1833420F4813409F088C007C083348C
:101BC00009F444C0843409F081C060C0413091F40C
:101BD00080B78F7E80BF3AB381E090E002C0880F6B
:101BE000991F6A95E2F7282F209523232ABB2BB350
:101BF000822B0AC02BB381E090E002C0880F991FAE
:101C00006A95E2F7809582238BBB0895413091F469
:101C100080B78F7E80BF37B381E090E002C0880F2D
:101C2000991F6A95E2F7282F2095232327BB28B315
:101C3000822B0AC028B381E090E002C0880F991F70
:101C40006A95E2F78095822388BB0895413091F42C
:101C500080B78F7E80BF34B381E090E002C0880FF0
:101C6000991F6A95E2F7282F2095232324BB25B3DB
:101C7000822B0AC025B381E090E002C0880F991F33
:101C80006A95E2F78095822385BB0895413099F4E7
:101C900080B78F7E80BF31B381E090E002C0880FB3
:101CA000991F6A95E2F7282F2095232321BB22B3A1
:101CB000822B82BB089522B381E090E002C0880F9E
:101CC000991F6A95E2F78095822382BB0895FC01F3
:101CD00080818295880F880F807C87B9379A3398E6
:101CE00096B18181880F880F880F892B86B986B1BC
:101CF000887F9281892B86B9089527B1207E262B73
:101D000027B9369AFC0181818823A1F4349BFECF48
:101D1000349A84B195B19093C1018093C0018091B0
:101D2000B5019091B601892B29F0E091B501F091B0
:101D3000B601099508959093B6018093B501089571
:101D40001F920F920FB60F9211242F933F934F9330
:101D50005F936F937F938F939F93AF93BF93EF9313
:101D6000FF9384B195B19093C1018093C00180919C
:101D7000B5019091B601892B29F0E091B501F09160
:101D8000B6010995FF91EF91BF91AF919F918F910E
:101D90007F916F915F914F913F912F910F900FBE67
:101DA0000F901F90189583E461E041E00E943B0C86
:101DB00081E08A95F1F783E461E040E00E943B0C0A
:101DC00008950F931F93082F182F12951F70412FFE
:101DD000417083E462E00E943B0C1695412F4170F4
:101DE00083E463E00E943B0C1695117083E464E089
:101DF000412F0E943B0C402F441F4427441F83E483
:101E000065E00E943B0C83E460E041E00E943B0CF3
:101E10000E94D30E102F1F70017083E462E0402FE8
:101E20000E943B0C412F4695417083E463E00E9481
:101E30003B0C16951695412F417083E464E00E9497
:101E40003B0C169583E465E0412F0E943B0C0E94F9
:101E5000D30E1F910F9108950F931F93CF93DF938C
:101E6000062FEC0110E004C089910E94E10E1F5F73
:101E70001017D0F3DF91CF911F910F910895CF9359
:101E8000DF93EC0103C00E94E10E21968881882334
:101E9000D1F7DF91CF9108950F931F93082F182F3B
:101EA00012951F70412F417083E462E00E943B0C49
:101EB0001695412F417083E463E00E943B0C169518
:101EC000117083E464E0412F0E943B0C402F441FBB
:101ED0004427441F83E465E00E943B0C83E460E0F8
:101EE00040E00E943B0C0E94D30E102F1F70017027
:101EF00083E462E0402F0E943B0C412F46954170E5
:101F000083E463E00E943B0C16951695412F4170C7
:101F100083E464E00E943B0C169583E465E0412F66
:101F20000E943B0C0E94D30E1F910F91089581E0F7
:101F30000E944C0F80ED97E00197F1F7089583E43C
:101F400062E041E00E94C90B83E463E041E00E944B
:101F5000C90B83E464E041E00E94C90B83E465E0BF
:101F600041E00E94C90B83E461E041E00E94C90B9B
:101F700083E460E041E00E94C90B82E00E944C0FC4
:101F800088E20E944C0F8CE00E944C0F0E94970F39
:101F900008958F929F92AF92BF92DF92EF92FF923D
:101FA0000F931F93DF93CF93CDB7DEB728970FB66C
:101FB000F894DEBF0FBECDBF84E0898385E08A83BD
:101FC00086E08B8387E08C8383E38D8386E38E8337
:101FD00089E38F8383E2888796E4D92E00E010E0BE
:101FE0004E010894811C911C85E0A82EB12CAC0EEA
:101FF000BD1EF401E00FF11FE08084E46E2D41E08E
:102000000E943B0C82E462E00E94AD0C813011F032
:10201000FF2406C0F501E00FF11FD080FF24F394E8
:1020200084E46E2D40E00E943B0CFF2029F40F5FFA
:102030001F4F04301105E9F68D2D28960FB6F89440
:10204000DEBF0FBECDBFCF91DF911F910F91FF90EB
:10205000EF90DF90BF90AF909F908F9008958F92F8
:102060009F92AF92BF92DF92EF92FF920F931F93D6
:10207000DF93CF93CDB7DEB728970FB6F894DEBFC6
:102080000FBECDBF84E0898385E08A8386E08B83A1
:1020900087E08C8382E38D8385E38E8388E38F835F
:1020A00080E3888736E4D32E00E010E04E010894E8
:1020B000811C911C25E0A22EB12CAC0EBD1EF4019A
:1020C000E00FF11FE08084E46E2D41E00E943B0CA4
:1020D00084E463E00E94AD0C813011F0FF2406C05F
:1020E000F501E00FF11FD080FF24F39484E46E2DFE
:1020F00040E00E943B0CFF2029F40F5F1F4F04308B
:102100001105E9F68D2D28960FB6F894DEBF0FBEA7
:10211000CDBFCF91DF911F910F91FF90EF90DF9096
:10212000BF90AF909F908F9008958F929F92AF92A3
:10213000BF92DF92EF92FF920F931F93DF93CF93A3
:10214000CDB7DEB728970FB6F894DEBF0FBECDBF70
:1021500084E0898385E08A8386E08B8387E08C83B3
:1021600081E38D8384E38E8387E38F838AE288878C
:1021700056E4D52E00E010E04E010894811C911C1D
:1021800045E0A42EB12CAC0EBD1EF401E00FF11FF2
:10219000E08084E46E2D41E00E943B0C84E462E028
:1021A0000E94AD0C813011F0FF2406C0F501E00F54
:1021B000F11FD080FF24F39484E46E2D40E00E9450
:1021C0003B0CFF2029F40F5F1F4F04301105E9F687
:1021D0008D2D28960FB6F894DEBF0FBECDBFCF91E0
:1021E000DF911F910F91FF90EF90DF90BF90AF9024
:1021F0009F908F9008950E948F0B84E464E041E0EB
:102200000E94C90B84E465E041E00E94C90B84E4AC
:1022100066E041E00E94C90B84E467E041E00E946F
:10222000C90B84E464E040E00E943B0C84E465E078
:1022300040E00E943B0C84E466E040E00E943B0CDE
:1022400084E467E040E00E943B0C08958091AB017C
:102250008F5F8093AB018091AB0168EC0E9481138A
:10226000992359F48091B801823021F08091B8010E
:10227000813019F481E08093BA018091AB0190E044
:1022800064EF71E00E948D13892B59F48091B8019D
:10229000823021F08091B801813019F481E080937F
:1022A000BB018091AB0190E068E077E00E948D1364
:1022B000892B59F48091B801823021F08091B801C6
:1022C000813019F481E08093BB0108951F920F9231
:1022D0000FB60F9211242F933F934F935F936F93F9
:1022E0007F938F939F93AF93BF93EF93FF930E943E
:1022F000C90F8093A0018091A0018332B9F480912D
:10230000B801882321F481E08093B80106C0809150
:10231000B801813011F41092B8016091B8018AE9D6
:1023200091E04CE951E00E94E30711C09091B8019F
:10233000913069F4E091B701F0E08091A001E85696
:10234000FE4F80838091B70189278093B701FF9169
:10235000EF91BF91AF919F918F917F916F915F911D
:102360004F913F912F910F900FBE0F901F90189596
:102370001F920F920FB60F9211241F932F933F932A
:102380004F935F936F937F938F939F93AF93BF937D
:10239000EF93FF931091B801113089F40E942F1030
:1023A0008093A001E091B701F0E08091A001E85690
:1023B000FE4F80838091B70181278093B701FF9101
:1023C000EF91BF91AF919F918F917F916F915F91AD
:1023D0004F913F912F911F910F900FBE0F901F9023
:1023E00018951F920F920FB60F9211242F933F93BF
:1023F0004F935F936F937F938F939F93AF93BF930D
:10240000EF93FF930E9495108093A0018091A0010B
:102410008A3251F58091B801813031F59091B70140
:10242000913069F480E380939A01809198018093C0
:102430009B018091B70189278093B7010CC08091DF
:10244000B701882311F58091980180939A018091BA
:10245000990180939B016091B8018AE991E04CE970
:1024600051E00E94E30711C09091B801913069F4E6
:10247000E091B701F0E08091A001E856FE4F808323
:102480008091B70189278093B701FF91EF91BF91A8
:10249000AF919F918F917F916F915F914F913F91FC
:1024A0002F910F900FBE0F901F9018950F931F93B1
:1024B00080919C010E944607082F80919D010E94F7
:1024C00046079AE0099F80011124800F8093A201A2
:1024D0001F910F9108956F927F928F929F92AF926A
:1024E000BF92CF92DF92EF92FF920F931F93809152
:1024F000B801813009F046C06091A101E090A201CD
:102500006090BC017090BD018090BE019090BF01B1
:1025100070E080E090E00E94A7045B016C01FF2462
:102520000027F7FC0095102FC801B7010E94F503A2
:102530009B01AC01C601B5010E94C10120E030E061
:1025400048EC52E40E94190320E030E040E251E4FC
:102550000E941F020E94490070E080E090E00E940B
:10256000A7049B01AC010E94F201A40193010E9407
:102570001F0220E030E048EC52E40E9419030E9460
:102580005A0B02C00E94540B1F910F91FF90EF90C5
:10259000DF90CF90BF90AF909F908F907F906F9083
:1025A00008958091BB018130E9F483EA91E060E015
:1025B0000E947D0E6091C0017091C10180E090E0A9
:1025C0000E94A70420E030E040E85AE30E941F0286
:1025D0006093BC017093BD018093BE019093BF01D5
:1025E0001092BB0108958091BA01813001F50E94DB
:1025F000730720919C0180919E01281731F49091DE
:102600009F0180919D01891771F020939E01809117
:102610009D0180939F016091B8018AE991E04CE9A6
:1026200051E00E94E3070E9456121092BA010895E9
:102630000F931F930E94FB100E94B4070E94BB08D7
:1026400083EA91E00E94670E82E061E00E94670BDE
:102650006091B8018AE991E04CE951E00E94E307FA
:1026600003E012E00E94F3120E946B120E94D1124A
:102670008091B801813009F041C09091A201809110
:10268000A101891748F48091A2012091A10190E055
:10269000821B910906977CF09091A2018091A10183
:1026A000981760F48091A1012091A20190E0821B13
:1026B000910906971CF41093B80120C09091A201D3
:1026C0008091A101891748F48091A2012091A10174
:1026D00090E0821B91090B977CF49091A10180916D
:1026E000A201891758F48091A1012091A20190E0E4
:1026F000821B9109069714F00093B8018091B801EC
:10270000B1CF991B79E004C0991F961708F0961B6A
:10271000881F7A95C9F78095089597FB092E07269B
:102720000AD077FD04D00CD006D000201AF47095A2
:1027300061957F4F0895F6F7909581959F4F089585
:10274000AA1BBB1B51E107C0AA1FBB1FA617B707D7
:1027500010F0A61BB70B881F991F5A95A9F78095F3
:102760009095BC01CD0108952F923F924F925F92B8
:102770006F927F928F929F92AF92BF92CF92DF9291
:10278000EF92FF920F931F93CF93DF93CDB7DEB7F6
:10279000CA1BDB0B0FB6F894DEBF0FBECDBF09948A
:1027A0002A88398848885F846E847D848C849B84E1
:1027B000AA84B984C884DF80EE80FD800C811B81EF
:1027C000AA81B981CE0FD11D0FB6F894DEBF0FBE1E
:0A27D000CDBFED010895F894FFCF8E
:1027DA005354414E444259004F5045524154494F77
:1027EA004E004E4F524D414C004552524F520053EB
:1027FA0045543A004352543A0053544154453A001E
:10280A0000000000000000000001020203030303AD
:10281A000404040404040404050505050505050566
:10282A000505050505050505060606060606060646
:10283A00060606060606060606060606060606062E
:10284A000606060606060606070707070707070716
:10285A0007070707070707070707070707070707FE
:10286A0007070707070707070707070707070707EE
:10287A0007070707070707070707070707070707DE
:10288A0007070707070707070808080808080808C6
:10289A0008080808080808080808080808080808AE
:1028AA00080808080808080808080808080808089E
:1028BA00080808080808080808080808080808088E
:1028CA00080808080808080808080808080808087E
:1028DA00080808080808080808080808080808086E
:1028EA00080808080808080808080808080808085E
:1028FA00080808080808080808080808080808084E
:10290A0008080808080808083030323546463235C3
:06291A0046191901000539
:00000001FF
