:100000000C942A000C943C000C943C000C943C0092
:100010000C943C000C943C000C943C000C943C0070
:100020000C943C000C943C000C9482000C94AF00A7
:100030000C943C000C943C000C943C000C943C0050
:100040000C943C000C943C000C943C000C943C0040
:100050000C943C0011241FBECFE5D8E0DEBFCDBF1D
:1000600010E0A0E6B0E001C01D92A436B107E1F7B0
:100070000E94DC000C94DF000C940000909363005D
:1000800080936200089590936100809360000895CA
:10009000FC0190812181822F8295807F892B83BFF3
:1000A000858182BF86818CBF992311F0983019F425
:1000B00083B7806802C083B78F7783BF222311F094
:1000C000BB9AC39899B78481982B8381880F892B19
:1000D00089BF83B79281892B83BF8FB780688FBF19
:1000E000089593B7982B93BF62BF08958CBF08956E
:1000F00083B78D7F83BF83B78B7F83BF83B78B7FAE
:1001000083BF08951F920F920FB60F9211242F9361
:100110003F934F935F936F937F938F939F93AF938F
:10012000BF93EF93FF938091620090916300892BBE
:1001300029F0E0916200F09163000995FF91EF9141
:10014000BF91AF919F918F917F916F915F914F91EF
:100150003F912F910F900FBE0F901F9018951F92F7
:100160000F920FB60F9211242F933F934F935F93EB
:100170006F937F938F939F93AF93BF93EF93FF936F
:100180008091600090916100892B29F0E0916000DE
:10019000F09161000995FF91EF91BF91AF919F910F
:1001A0008F917F916F915F914F913F912F910F9020
:1001B0000FBE0F901F90189580E090E00895F8947E
:0201C000FFCF6F
:00000001FF
