:100000000C942A000C9447000C9447000C94470071
:100010000C9495000C94C2000C9447000C9447007B
:100020000C9447000C9447000C9435010C94620129
:100030000C9447000C9447000C9447000C94470024
:100040000C9447000C9447000C9447000C94470014
:100050000C94470011241FBECFE5D8E0DEBFCDBF12
:1000600010E0A0E6B0E0E8E4FDE002C005900D92EB
:10007000A836B107D9F710E0A8E6B0E001C01D929C
:10008000A237B107E1F70E947B060C94A2060C94FC
:100090000000FC01208125BD95B53181832F82951B
:1000A000807F892B85BD858184BD868183BD222388
:1000B00011F0283019F485B5806802C085B58F77B6
:1000C00085BD332311F08F9A979829B79381929524
:1000D000990F990F907C8481879588278795892B24
:1000E000822B89BF85B59281892B85BD8FB78068AA
:1000F0008FBF089595B5982B95BD64BD089583BDB8
:10010000089585B58E7F85BD85B58D7F85BD85B507
:100110008B7F85BD089590936C0080936B0008954C
:1001200090936A008093690008951F920F920FB612
:100130000F9211242F933F934F935F936F937F936D
:100140008F939F93AF93BF93EF93FF9380916B0037
:1001500090916C00892B29F0E0916B00F0916C007C
:100160000995FF91EF91BF91AF919F918F917F91F1
:100170006F915F914F913F912F910F900FBE0F9014
:100180001F9018951F920F920FB60F9211242F9364
:100190003F934F935F936F937F938F939F93AF930F
:1001A000BF93EF93FF938091690090916A00892B30
:1001B00029F0E0916900F0916A000995FF91EF91B3
:1001C000BF91AF919F918F917F916F915F914F916F
:1001D0003F912F910F900FBE0F901F901895FC012B
:1001E000208123BF93B73181832F8295807F892B14
:1001F00083BF858182BF86818CBF222311F0283086
:1002000019F483B7806802C083B78F7783BF332325
:1002100011F0BB9AC39899B78381982B8481880F7A
:10022000892B89BF83B79281892B83BF8FB7806861
:100230008FBF089593B7982B93BF62BF08958CBF6B
:10024000089583B78E7F83BF83B78D7F83BF83B7C6
:100250008B7F83BF08959093710080937000089501
:1002600090936F0080936E0008951F920F920FB6C7
:100270000F9211242F933F934F935F936F937F932C
:100280008F939F93AF93BF93EF93FF9380917000F1
:1002900090917100892B29F0E0917000F09171002C
:1002A0000995FF91EF91BF91AF919F918F917F91B0
:1002B0006F915F914F913F912F910F900FBE0F90D3
:1002C0001F9018951F920F920FB60F9211242F9323
:1002D0003F934F935F936F937F938F939F93AF93CE
:1002E000BF93EF93FF9380916E0090916F00892BE5
:1002F00029F0E0916E00F0916F000995FF91EF9168
:10030000BF91AF919F918F917F916F915F914F912D
:100310003F912F910F900FBE0F901F901895BE9A8E
:100320006E9A08958FB9779BFECF0895779BFECF85
:100330008FB10895843019F1853048F48130C9F0C7
:10034000813098F08230B9F0833089F416C087305C
:10035000E1F0883028F48530A1F0863041F413C0F4
:100360008830A9F0893019F414C080E3089580E042
:10037000089581E3089582E3089583E3089584E373
:10038000089585E3089586E3089587E3089588E353
:10039000089589E308950F931F93CF93DF93EC01A2
:1003A00082E464E041E00E94D40282E08FB9779B4E
:1003B000FECF1FB8779BFECF82E464E040E00E944E
:1003C000D4028AEF90E00197F1F7779BFECF1FB13F
:1003D00082E464E041E00E94D40281E08FB9779B1F
:1003E000FECF1FB8779BFECF82E464E040E00E941E
:1003F000D4028AEF90E00197F1F7779BFECF0FB11F
:1004000017FF03C011958DE201C080E28883812F20
:100410006AE00E9496060E949A018983812F6AE011
:100420000E949606892F0E949A018A838EE28B830E
:10043000003481F0013418F4002331F00FC000388B
:1004400029F0003C59F406C080E309C085E38C83A1
:1004500080E306C082E38C8385E302C089E38C835A
:100460008D83CE01DF91CF911F910F91089582E48A
:1004700064E041E00E94D40280E88FB9779BFECF10
:1004800084E08FB9779BFECF82E464E040E00E9475
:10049000D4028CE792E90197F1F7089582E465E0D0
:1004A00041E00E94620282E464E041E00E94620254
:1004B00082E467E041E00E9462028DB187658DB9F8
:1004C00070980895823429F1833420F4813409F03E
:1004D0006AC006C08334B1F1843409F064C04BC0F3
:1004E000413059F42AB381E090E002C0880F991F8F
:1004F0006A95E2F7282B2ABB08952AB381E090E0A1
:1005000002C0880F991F6A95E2F7809582238ABB03
:100510000895413059F427B381E090E002C0880F7C
:10052000991F6A95E2F7282B27BB089527B381E02E
:1005300090E002C0880F991F6A95E2F780958223A8
:1005400087BB0895413059F424B381E090E002C0A4
:10055000880F991F6A95E2F7282B24BB089524B3CE
:1005600081E090E002C0880F991F6A95E2F78095BC
:10057000822384BB0895413059F421B381E090E097
:1005800002C0880F991F6A95E2F7282B21BB0895B6
:1005900021B381E090E002C0880F991F6A95E2F7CD
:1005A0008095822381BB0895823429F1833420F41D
:1005B000813409F06AC006C08334B1F1843409F093
:1005C00064C04BC0413059F42BB381E090E002C0CD
:1005D000880F991F6A95E2F7282B2BBB08952BB340
:1005E00081E090E002C0880F991F6A95E2F780953C
:1005F00082238BBB0895413059F428B381E090E009
:1006000002C0880F991F6A95E2F7282B28BB08952E
:1006100028B381E090E002C0880F991F6A95E2F745
:100620008095822388BB0895413059F425B381E039
:1006300090E002C0880F991F6A95E2F7282B25BB2E
:10064000089525B381E090E002C0880F991F6A9554
:10065000E2F78095822385BB0895413059F422B397
:1006600081E090E002C0880F991F6A95E2F7282B7D
:1006700022BB089522B381E090E002C0880F991F49
:100680006A95E2F78095822382BB0895823469F0EF
:10069000833418F4813429F406C0833441F084345F
:1006A00041F020E00FC029B305C026B303C023B337
:1006B00001C020B381E090E002C0880F991F6A95C5
:1006C000E2F72823822F0895823451F1833418F4FD
:1006D000813439F408C0833409F43FC0843409F408
:1006E00059C060E073C060E040E050E0E1E0F0E05D
:1006F00089B39F01042E02C0220F331F0A94E2F730
:1007000090E082239323019711F4622B03C0822F80
:10071000809568234F5F5F4F4830510549F756C0B9
:1007200060E040E050E0E1E0F0E086B39F01042E9D
:1007300002C0220F331F0A94E2F790E08223932332
:10074000019711F4622B03C0822F809568234F5FBD
:100750005F4F4830510549F739C060E040E050E054
:10076000E1E0F0E083B39F01042E02C0220F331FAB
:100770000A94E2F790E082239323019711F4622B0D
:1007800003C0822F809568234F5F5F4F483051052B
:1007900049F71CC060E040E050E0E1E0F0E080B3E9
:1007A0009F01042E02C0220F331F0A94E2F790E04B
:1007B00082239323019711F4622B03C0822F80952B
:1007C00068234F5F5F4F4830510549F7862F0895E2
:1007D0008234A9F0833418F4813489F505C0833458
:1007E000C9F0843461F521C02BB381E090E002C0F0
:1007F000880F991F6A95E2F728272BBB089528B325
:1008000081E090E002C0880F991F6A95E2F72827DF
:1008100028BB089525B381E090E002C0880F991F9E
:100820006A95E2F7282725BB089522B381E090E07E
:1008300002C0880F991F6A95E2F7282722BB089506
:10084000823461F0833418F4813469F405C0833450
:1008500039F0843441F406C06BBB089568BB089539
:1008600065BB089562BB0895823479F0833418F42F
:100870008134C9F405C0833469F08434A1F40FC015
:100880008BB3607F862B8BBB089588B3607F862BEC
:1008900088BB089585B3607F862B85BB089582B39E
:1008A000607F862B82BB0895823471F0833418F404
:1008B0008134A9F405C0833459F0843481F40CC028
:1008C0008BB38F708BBB089588B38F7088BB0895EE
:1008D00085B38F7085BB089582B38F7082BB0895F6
:1008E000823469F1833420F4813409F088C007C070
:1008F000833409F444C0843409F081C060C04130BD
:1009000091F480B78F7E80BF3AB381E090E002C05F
:10091000880F991F6A95E2F7282F209523232ABB79
:100920002BB3822B0AC02BB381E090E002C0880F6A
:10093000991F6A95E2F7809582238BBB0895413019
:1009400091F480B78F7E80BF37B381E090E002C022
:10095000880F991F6A95E2F7282F2095232327BB3C
:1009600028B3822B0AC028B381E090E002C0880F30
:10097000991F6A95E2F78095822388BB08954130DC
:1009800091F480B78F7E80BF34B381E090E002C0E5
:10099000880F991F6A95E2F7282F2095232324BBFF
:1009A00025B3822B0AC025B381E090E002C0880FF6
:1009B000991F6A95E2F78095822385BB089541309F
:1009C00099F480B78F7E80BF31B381E090E002C0A0
:1009D000880F991F6A95E2F7282F2095232321BBC2
:1009E00022B3822B82BB089522B381E090E002C043
:1009F000880F991F6A95E2F78095822382BB08953C
:100A000083E461E041E00E94D40281E08A95F1F73D
:100A100083E461E040E00E94D40284EF91E001971A
:100A2000F1F708950F931F93082F182F12951F7039
:100A3000412F417083E462E00E94D4021695412F59
:100A4000417083E463E00E94D4021695117083E440
:100A500064E0412F0E94D402402F441F4427441FCA
:100A600083E465E00E94D40283E460E041E00E94F8
:100A7000D4020E940005102F1F70017083E462E011
:100A8000402F0E94D402412F4695417083E463E0D9
:100A90000E94D40216951695412F417083E464E0BC
:100AA0000E94D402169583E465E0412F0E94D4028F
:100AB0000E9400051F910F910895CF93DF93EC01E1
:100AC00003C00E941205219688818823D1F7DF9107
:100AD000CF9108950F931F93082F182F12951F7011
:100AE000412F417083E462E00E94D4021695412FA9
:100AF000417083E463E00E94D4021695117083E490
:100B000064E0412F0E94D402402F441F4427441F19
:100B100083E465E00E94D40283E460E040E00E9448
:100B2000D4020E940005102F1F70017083E462E060
:100B3000402F0E94D402412F4695417083E463E028
:100B40000E94D40216951695412F417083E464E00B
:100B50000E94D402169583E465E0412F0E94D402DE
:100B60000E9400051F910F91089581E00E946A057F
:100B700084EF91E00197F1F708950F931F93CF93BE
:100B8000DF930E94B5058CE00E946A0500E084E1D5
:100B90000E946A050F5F0031D1F787E50E941205B8
:100BA00088E10E946A0585E40E94120588E10E949E
:100BB0006A0504EC19E0C8010197F1F78CE40E9482
:100BC000120588E10E946A05C8010197F1F783E4E4
:100BD0000E94120588E10E946A05C8010197F1F799
:100BE0008FE40E94120588E10E946A05C8010197FE
:100BF000F1F78DE40E94120588E10E946A05C801A0
:100C00000197F1F785E40E94120588E10E946A05C8
:100C1000C8010197F1F710E0C4ECD9E016C088E1F3
:100C20000E946A05CE010197F1F70F5F0930B9F70D
:100C300000E08CE10E946A05CE010197F1F70F5F99
:100C40000930B9F71F5F133011F000E0E8CF8EE0F4
:100C50000E946A05DF91CF911F910F91089583E45F
:100C600062E041E00E94620283E463E041E00E94AE
:100C7000620283E464E041E00E94620283E465E092
:100C800041E00E94620283E461E041E00E9462026E
:100C900083E460E041E00E94620282E00E946A0513
:100CA00088E20E946A058EE00E946A0581E00E9447
:100CB0006A0584EF91E00197F1F708951ABA87E881
:100CC00086B980E487B9089597B18F70892B87B969
:100CD000369A349BFECF83E08A95F1F794B185B1C3
:100CE000382F20E0290F311DC90108958BB392E000
:100CF00089278BBB0895DF93CF93CDB7DEB72797B6
:100D00000FB6F894DEBF0FBECDBFD19A8FEF8ABB6E
:100D1000DE011196E0E6F0E087E001900D9281504F
:100D2000E1F7CE0101960E944900FFCF991B79E0BF
:100D300004C0991F961708F0961B881F7A95C9F76B
:080D400080950895F894FFCF9F
:080D4800080105000100FF0095
:00000001FF
