:100000000C942A000C947A120C941F120C94C811B0
:100010000C946D090C949A090C9447000C94260AD0
:100020000C9447000C94550A0C94030B0C94300B61
:100030000C9447000C9447000C9447000C94470024
:100040000C94D80E0C9447000C9447000C94470075
:100050000C94470011241FBECFE5D8E0DEBFCDBF12
:1000600011E0A0E6B0E0E6E9F8E202C005900D92EA
:10007000A03BB107D9F711E0A0EBB1E001C01D92A0
:10008000A03DB107E1F70E947E130C9449140C9433
:100090000000EF92FF920F931F937B018C0120E0F1
:1000A00030E040E05FE40E94C50388238CF0C80183
:1000B000B70120E030E040E05FE40E94C1010E940F
:1000C00053049B01AC01205030404040504806C0D2
:1000D000C801B7010E9453049B01AC01B901CA01D8
:1000E0001F910F91FF90EF900895A0E0B0E0EBE733
:1000F000F0E00C941214DC012B01FA019C91923077
:1001000008F439C1EB018881823008F433C194309E
:1001100069F4843009F02FC111969C91119789815F
:10012000981709F428C1A0E9B0E025C1843009F48A
:1001300021C18230A9F4923009F01DC19A01AD01AC
:1001400088E0EA010990AE01E90109929E0181501F
:10015000C1F7E201898111969C918923818308C1AD
:10016000923009F407C112962D903C901397EB0141
:100170008A819B811496AD90BD90CD90DC901797AD
:10018000EC80FD800E811F819101281B390BB90184
:1001900037FF04C066277727621B730B6032710537
:1001A0000CF061C0121613066CF537014801062EDB
:1001B00004C096948794779467940A94D2F721E0C8
:1001C00030E040E050E004C0220F331F441F551FB1
:1001D0006A95D2F721503040404050402E213F21B7
:1001E00040235123211531054105510521F021E01E
:1001F00030E040E050E079018A01E628F72808293C
:1002000019293CC0232BD1F1260E371E350146019A
:10021000062E04C096948794779467940A94D2F734
:1002200021E030E040E050E004C0220F331F441FC3
:10023000551F6A95D2F721503040404050402A2146
:100240003B214C215D21211531054105510521F04E
:1002500021E030E040E050E059016A01A628B728CB
:10026000C828D9280BC0821593052CF01C01AA249C
:10027000BB24650103C0EE24FF24870111969C91E5
:10028000D20111968C91981709F445C0992339F041
:10029000A80197012A193B094C095D0906C0A6016E
:1002A00095012E193F09400B510B57FD08C01182D3
:1002B0003382228224833583468357831DC081E0A5
:1002C00081833382228288279927DC01821B930B4A
:1002D000A40BB50B84839583A683B7830DC0220F2F
:1002E000331F441F551F24833583468357838281E0
:1002F000938101979383828324813581468157813D
:10030000DA01C9010197A109B1098F5F9F4FAF4F72
:10031000BF4328F30BC0918333822282EA0CFB1C7B
:100320000C1D1D1DE482F5820683178383E0808304
:10033000248135814681578157FF1AC0C901AA27F8
:1003400097FDA095BA2F81709070A070B0705695EF
:10035000479537952795822B932BA42BB52B848318
:100360009583A683B7838281938101969383828349
:10037000DF0101C0D201CD01CDB7DEB7E2E10C94BF
:100380002E14A0E2B0E0E7ECF1E00C941E146983B7
:100390007A838B839C832D833E834F835887E9E048
:1003A000EE2EF12CEC0EFD1ECE010196B7010E943F
:1003B00044068E010F5E1F4FCE010596B8010E94C4
:1003C00044068A8991E089278A8BC701B801AE016A
:1003D000475E5F4F0E9475000E946F05A096E6E0A1
:1003E0000C943A14A0E2B0E0E8EFF1E00C941E1493
:1003F00069837A838B839C832D833E834F835887C5
:10040000F9E0EF2EF12CEC0EFD1ECE010196B701A6
:100410000E9444068E010F5E1F4FCE010596B80163
:100420000E944406C701B801AE01475E5F4F0E94BB
:1004300075000E946F05A096E6E00C943A14A0E2C5
:10044000B0E0E5E2F2E00C94121469837A838B83C6
:100450009C832D833E834F835887CE010196BE0136
:10046000675F7F4F0E944406CE010596BE016F5E16
:100470007F4F0E9444069985923088F089898230A6
:10048000C8F0943019F4823051F404C0843029F457
:10049000923081F480E990E0C6C0923049F420E0C7
:1004A0009A858A89981321E02A87CE010996BBC0D4
:1004B000823049F420E09A858A89981321E02A8BBA
:1004C000CE014196B0C02D843E844F8458886D88FB
:1004D0007E888F88988CEE24FF248701AA24BB2471
:1004E000650140E050E060E070E0E0E0F0E0C10174
:1004F00081709070892BE9F0E60CF71C081D191D1E
:100500009A01AB012A0D3B1D4C1D5D1D80E090E062
:10051000A0E0B0E0E614F7040805190520F481E036
:1005200090E0A0E0B0E0BA01A901480F591F6A1F8E
:100530007B1FAA0CBB1CCC1CDD1C97FE08C081E0F5
:1005400090E0A0E0B0E0A82AB92ACA2ADB2A3196B6
:10055000E032F10549F0660C771C881C991C569412
:10056000479437942794C3CFFA85EA892B893C892D
:100570008B859C85280F391F2E5F3F4F17C0CA01FE
:1005800081709070892B61F016950795F794E79428
:1005900080E090E0A0E0B0E8E82AF92A0A2B1B2BC3
:1005A00076956795579547952F5F3F4F77FDE7CF36
:1005B0000CC0440F551F661F771F17FD4160EE0CDE
:1005C000FF1C001F111F21503040403090E05907A0
:1005D00090E0690790E4790760F32B8F3C8FDB0193
:1005E000CA018F779070A070B07080349105A1051A
:1005F000B10561F447FD0AC0E114F10401051105DC
:1006000029F0405C5F4F6F4F7F4F40781A8EFE1786
:1006100011F081E08A8F4D8F5E8F6F8F78A383E01A
:10062000898FCE0149960E946F05A096E2E10C9455
:100630002E14A8E1B0E0EFE1F3E00C941A14698302
:100640007A838B839C832D833E834F835887B9E0C5
:10065000EB2EF12CEC0EFD1ECE010196B7010E948F
:1006600044068E010F5E1F4FCE010596B8010E9411
:1006700044062985223008F47EC03989323010F4CE
:10068000B8017CC08A859A8989278A87243011F02D
:10069000223031F4231709F06EC060E970E06EC0BB
:1006A000343039F41D861E861F86188A1C861B86E8
:1006B00004C0323021F484E08987B7015FC02B8504
:1006C0003C858B899C89281B390B3C872B87ED84C3
:1006D000FE840F851889AD88BE88CF88D88CEA142F
:1006E000FB040C051D0540F4EE0CFF1C001F111F40
:1006F000215030403C872B8720E030E040E050E044
:1007000080E090E0A0E0B0E460E070E0EA14FB0478
:100710000C051D0540F0282B392B4A2B5B2BEA18C2
:10072000FB080C091D09B695A79597958795EE0CC2
:10073000FF1C001F111F6F5F7F4F6F31710531F775
:10074000DA01C9018F779070A070B0708034910584
:10075000A105B10561F427FD0AC0E114F10401050A
:10076000110529F0205C3F4F4F4F5F4F20782D87B8
:100770003E874F87588BBE01675F7F4FCB010E943A
:100780006F056896EAE00C943614A8E1B0E0EBEC53
:10079000F3E00C941E1469837A838B839C832D83EE
:1007A0003E834F83588789E0E82EF12CEC0EFD1E26
:1007B000CE010196B7010E9444068E010F5E1F4FC5
:1007C000CE010596B8010E9444068985823040F02A
:1007D0008989823028F0C701B8010E94BC0601C097
:1007E0008FEF6896E6E00C943A14A8E0B0E0EBEFE7
:1007F000F3E00C941B149B01AC0183E08983DA01C4
:10080000C9018827B7FD83959927AA27BB27B82E4A
:10081000211531054105510519F482E089833AC05B
:100820008823A9F0203080E0380780E0480780E87E
:10083000580729F460E070E080E09FEC30C0EE24BF
:10084000FF248701E21AF30A040B150B02C0790199
:100850008A018EE1C82ED12CDC82CB82ED82FE8211
:100860000F831887C801B7010E9420050197181649
:10087000190684F4082E04C0EE0CFF1C001F111F83
:100880000A94D2F7ED82FE820F831887C81AD90A1C
:10089000DC82CB82BA82CE0101960E946F05289637
:1008A000E9E00C943714ACE0B0E0E9E5F4E00C9436
:1008B000221469837A838B839C83CE010196BE01C7
:1008C0006B5F7F4F0E9444068D81823061F18230E0
:1008D00050F1843021F48E81882351F12EC02F8174
:1008E000388537FD20C06E812F3131051CF066231D
:1008F000F9F023C08EE190E0821B930B29853A85A5
:100900004B855C8504C056954795379527958A9504
:10091000D2F76623B1F050954095309521953F4F21
:100920004F4F5F4F0EC020E030E040E050E009C084
:100930002FEF3FEF4FEF5FE704C020E030E040E0F3
:1009400050E8B901CA012C96E2E00C943E14A8E0EC
:10095000B0E0EDEAF4E00C941A147B018C0161150F
:1009600071058105910519F482E0898360C083E0F7
:1009700089838EE1C82ED12CDC82CB82ED82FE826F
:100980000F831887C801B7010E942005FC01319729
:10099000F7FF3BC0222733272E1B3F0B570168016F
:1009A000022E04C0D694C794B794A7940A94D2F7A1
:1009B00040E050E060E070E081E090E0A0E0B0E076
:1009C00004C0880F991FAA1FBB1F2A95D2F7019751
:1009D000A109B1098E219F21A023B1230097A10570
:1009E000B10521F041E050E060E070E04A295B2968
:1009F0006C297D294D835E836F8378878EE190E03B
:100A00008E1B9F0B9C838B8312C0309781F00E2E20
:100A100004C0EE0CFF1C001F111F0A94D2F7ED82D8
:100A2000FE820F831887CE1ADF0ADC82CB821A82FD
:100A3000CE0101960E946F052896EAE00C943614C8
:100A4000EF92FF920F931F937B018C0180E0E816D9
:100A500080E0F80681E0080780E0180788F48FEF4F
:100A6000E816F1040105110531F028F088E090E066
:100A7000A0E0B0E017C080E090E0A0E0B0E012C0DD
:100A800080E0E81680E0F80680E0080781E01807BB
:100A900028F088E190E0A0E0B0E004C080E190E0C0
:100AA000A0E0B0E020E230E040E050E0281B390B4D
:100AB0004A0B5B0B04C016950795F794E7948A954B
:100AC000D2F7F701E856FF4F8081281B3109410911
:100AD0005109C9011F910F91FF90EF900895DF9286
:100AE000EF92FF920F931F93FC01E480F580068143
:100AF0001781D1808081823048F480E090E0A0E1CD
:100B0000B0E0E82AF92A0A2B1B2BA5C0843009F48F
:100B10009FC0823021F4EE24FF24870105C0E11438
:100B2000F1040105110519F4E0E0F0E096C06281DE
:100B300073819FEF623879070CF05BC022E83FEFCA
:100B4000261B370B2A3131052CF020E030E040E045
:100B500050E02AC0B801A701022E04C0769567951F
:100B6000579547950A94D2F781E090E0A0E0B0E075
:100B700004C0880F991FAA1FBB1F2A95D2F701979F
:100B8000A109B1098E219F21A023B1230097A105BE
:100B9000B10521F081E090E0A0E0B0E09A01AB0166
:100BA000282B392B4A2B5B2BDA01C9018F779070E8
:100BB000A070B07080349105A105B10539F427FF0C
:100BC00009C0205C3F4F4F4F5F4F04C0215C3F4F37
:100BD0004F4F5F4FE0E0F0E02030A0E03A07A0E0A8
:100BE0004A07A0E45A0710F0E1E0F0E079018A0139
:100BF00027C06038710564F5FB01E158FF4FD8014B
:100C0000C7018F779070A070B07080349105A105F6
:100C1000B10539F4E7FE0DC080E490E0A0E0B0E05B
:100C200004C08FE390E0A0E0B0E0E80EF91E0A1FD8
:100C30001B1F17FF05C016950795F794E79431968B
:100C400087E016950795F794E7948A95D1F705C044
:100C5000EE24FF248701EFEFF0E06E2F6795662703
:100C60006795902F9F77D794DD24D7948E2F869504
:100C7000492F462B582F5D29B701CA011F910F91AB
:100C8000FF90EF90DF900895FC01DB0140815181DE
:100C90002281622F6F7770E0221F2227221F93810B
:100CA000892F880F822B282F30E0991F9927991FB1
:100CB00011969C93119721153105A9F54115510500
:100CC0006105710511F482E037C082E89FEF139649
:100CD0009C938E9312979A01AB0167E0220F331F0A
:100CE000441F551F6A95D1F783E08C930DC0220FE6
:100CF000331F441F551F12968D919C911397019796
:100D000013969C938E931297203080E0380780E0F2
:100D1000480780E4580758F314962D933D934D935C
:100D20005C93179708952F3F310579F441155105CC
:100D30006105710519F484E08C93089564FF03C084
:100D400081E08C9312C01C9210C02F573040139634
:100D50003C932E93129783E08C9387E0440F551FAA
:100D6000661F771F8A95D1F7706414964D935D9333
:100D70006D937C93179708951F93DC01FB019C9161
:100D8000923008F447C08081823008F443C0943028
:100D900051F411961C91843099F58181682F70E08F
:100DA000611B71093FC0843021F0923031F48230F0
:100DB000B9F18181882389F12DC011961C91119779
:100DC0008230F1F081811817D9F412962D913C915F
:100DD0001397828193818217930794F0281739071C
:100DE000BCF014968D919D910D90BC91A02D248105
:100DF000358146815781281739074A075B0718F460
:100E0000112341F00AC082179307A407B50740F4E5
:100E1000112319F061E070E005C06FEF7FEF02C0B1
:100E200060E070E0CB011F910895843019F18530A6
:100E300048F48130C9F0813098F08230B9F08330C5
:100E400089F416C08730E1F0883028F48530A1F0AD
:100E5000863041F413C08830A9F0893019F414C0E9
:100E600080E3089580E0089581E3089582E3089582
:100E700083E3089584E3089585E3089586E3089560
:100E800087E3089588E3089589E30895853309F198
:100E9000863360F48233B9F0833318F4813389F4F4
:100EA0000EC0833391F0843361F411C08733A9F00D
:100EB000873388F0883399F0893319F412C081E0C0
:100EC000089580E0089582E0089583E0089584E025
:100ED000089585E0089586E0089587E0089588E004
:100EE000089589E008950F931F9382E464E041E040
:100EF0000E94730C82E00E94600B80E00E94600BF5
:100F000082E464E040E00E94730C05E8802F8A953B
:100F1000F1F70E94640B182F82E464E041E00E9424
:100F2000730C81E00E94600B80E00E94600B82E401
:100F300064E040E00E94730C0A95F1F717FD1195EB
:100F4000812F6AE00E94F2130E94150780939C0192
:100F5000812F6AE00E94F213892F0E941507809367
:100F60009D011F910F9108950E94680B82E464E037
:100F700041E00E94730C80E80E94600B84E00E94B4
:100F8000600B82E464E040E00E94730C85E88A957F
:100F9000F1F708950F931F93DF93CF93CDB7DEB78B
:100FA00029970FB6F894DEBF0FBECDBF8C01DE01CE
:100FB0001196E7EAF1E089E001900D928150E1F7A6
:100FC000CE0101960E94C709C8010E941C0A2996F9
:100FD0000FB6F894DEBF0FBECDBFCF91DF911F914A
:100FE0000F910895813051F0813028F0823049F01E
:100FF000833081F40BC080E690E005C088E690E085
:1010000002C082E790E00E94770F089589E790E0A0
:101010000E94770F0895DF92EF92FF920F931F9334
:101020008C01D62E7A010E94CF0F8FE790E00E94AC
:10103000770FC80162E00E94640F85E10E94840F6F
:1010400085E10E94840F85E10E94840F85E10E9462
:10105000840F84E890E00E94770FC70162E00E944D
:10106000640F80EC0E94840F89E890E00E94770F63
:101070008D2D0E94F2071F910F91FF90EF90DF904E
:1010800008950F931F93CF93DF930E94CF0F10E02B
:1010900085E10E94840F1F5F1031D1F787E50E9420
:1010A000190F88E10E94840F88EE93E024E630E077
:1010B000F9013197F1F70197D9F785E40E94190FEB
:1010C00088E10E94840F88EE93E024E630E0F90185
:1010D0003197F1F70197D9F78CE40E94190F88E155
:1010E0000E94840F88EE93E024E630E0F901319706
:1010F000F1F70197D9F783E40E94190F88E10E9464
:10110000840F88EE93E024E630E0F9013197F1F79F
:101110000197D9F78FE40E94190F88E10E94840F8C
:1011200088EE93E024E630E0F9013197F1F701977A
:10113000D9F78DE40E94190F88E10E94840F88EE90
:1011400093E024E630E0F9013197F1F70197D9F700
:1011500085E40E94190F88E10E94840F88EE93E0D5
:1011600024E630E0F9013197F1F70197D9F700E073
:10117000C4E6D0E01EC088E10E94840F88EE93E0B0
:10118000FE013197F1F70197D9F71F5F193099F7F1
:1011900010E08CE10E94840F88EE93E0FE0131970D
:1011A000F1F70197D9F71F5F193099F70F5F0330F7
:1011B00011F010E0E0CF8EE00E94840FDF91CF911C
:1011C0001F910F9108950E94D70F0895FC0120816F
:1011D00025BD95B53181832F8295807F892B85BD73
:1011E000858184BD868183BD222311F0283019F4C6
:1011F00085B5806802C085B58F7785BD332311F032
:101200008F9A979829B793819295990F990F907C0F
:101210008481879588278795892B822B89BF85B5FF
:101220008E7F85BD95B52281822F8170892B85BDEA
:1012300085B58D7F85BD45B530E0C9018270907060
:10124000880F991F482B45BD85B58B7F85BD85B51A
:1012500024703070220F331F220F331F822B85BD65
:101260008FB780688FBF089595B59E7F95BD25B5D2
:10127000962F9170922B95BD95B59D7F95BD95B597
:1012800070E09B0122703070220F331F922B95BDAE
:1012900095B59B7F95BD95B564707070660F771F8F
:1012A000660F771F962B95BD84BD089583BD089565
:1012B00085B58E7F85BD85B58D7F85BD85B58B7FD9
:1012C00085BD12BE08959093B5018093B401089531
:1012D0009093B3018093B20108951F920F920FB6BD
:1012E0000F9211242F933F934F935F936F937F93AC
:1012F0008F939F93AF93BF93EF93FF938091B4012C
:101300009091B501892B29F0E091B401F091B501DC
:101310000995FF91EF91BF91AF919F918F917F912F
:101320006F915F914F913F912F910F900FBE0F9052
:101330001F9018951F920F920FB60F9211242F93A2
:101340003F934F935F936F937F938F939F93AF934D
:10135000BF93EF93FF938091B2019091B301892BDA
:1013600029F0E091B201F091B3010995FF91EF915D
:10137000BF91AF919F918F917F916F915F914F91AD
:101380003F912F910F900FBE0F901F901895FC0169
:10139000808191818C608FBD9EBD878190859DBD30
:1013A0008CBD858196819BBD8ABD29B79481990F9B
:1013B000990F83818295807F892B822B89BF8EB57F
:1013C0002281822B8EBD8EB58E7F8EBD9EB5822FE3
:1013D0008170892B8EBD8EB58D7F8EBD4EB530E070
:1013E000C90182709070880F991F482B4EBD8EB531
:1013F0008B7F8EBD8EB524703070220F331F220F6D
:10140000331F822B8EBD8FB780688FBF08952EB596
:10141000262B2EBD9DBD8CBD08959BBD8ABD089514
:101420008EB58E7F8EBD8EB58D7F8EBD8EB58B7F3A
:101430008EBD1DBC1CBC08959093BB018093BA0166
:1014400008959093B9018093B80108951F920F9267
:101450000FB60F9211242F933F934F935F936F9387
:101460007F938F939F93AF93BF93EF93FF931DBC95
:101470001CBC8091BA019091BB01892B29F0E091AD
:10148000BA01F091BB010995FF91EF91BF91AF9126
:101490009F918F917F916F915F914F913F912F918C
:1014A0000F900FBE0F901F9018951F920F920FB6BE
:1014B0000F9211242F933F934F935F936F937F93DA
:1014C0008F939F93AF93BF93EF93FF938091B80156
:1014D0009091B901892B29F0E091B801F091B901FF
:1014E0000995FF91EF91BF91AF919F918F917F915E
:1014F0006F915F914F913F912F910F900FBE0F9081
:101500001F901895FC01208123BF93B73181832F51
:101510008295807F892B83BF858182BF86818CBF26
:10152000222311F0283019F483B7806802C083B7F2
:101530008F7783BF332311F0BB9AC39899B7838108
:10154000982B8481880F892B89BF83B78E7F83BFB7
:1015500093B72281822F8170892B83BF83B78D7FC0
:1015600083BF43B730E0C90182709070880F991F24
:10157000482B43BF83B78B7F83BF83B72470307002
:10158000220F331F220F331F822B83BF8FB7806838
:101590008FBF089593B79E7F93BF23B7962F917007
:1015A000922B93BF93B79D7F93BF93B770E09B013E
:1015B00022703070220F331F922B93BF93B79B7F03
:1015C00093BF93B764707070660F771F660F771FB5
:1015D000962B93BF82BF08958CBF089583B78E7FEB
:1015E00083BF83B78D7F83BF83B78B7F83BF12BEDB
:1015F00008959093C1018093C00108959093BF0115
:101600008093BE0108951F920F920FB60F9211247E
:101610002F933F934F935F936F937F938F939F93FA
:10162000AF93BF93EF93FF938091C0019091C1015D
:10163000892B29F0E091C001F091C1010995FF913A
:10164000EF91BF91AF919F918F917F916F915F913A
:101650004F913F912F910F900FBE0F901F901895B3
:101660001F920F920FB60F9211242F933F934F9317
:101670005F936F937F938F939F93AF93BF93EF93FA
:10168000FF938091BE019091BF01892B29F0E091D9
:10169000BE01F091BF010995FF91EF91BF91AF910C
:1016A0009F918F917F916F915F914F913F912F917A
:1016B0000F900FBE0F901F901895BE9A6E9A0895C6
:1016C0008FB9779BFECF0895779BFECF8FB108959A
:1016D00082E465E041E00E94010C82E464E041E0C4
:1016E0000E94010C82E467E041E00E94010C8DB190
:1016F00087658DB9709808950E94EE0A80E00E9477
:10170000EC0A0895EF92FF920F931F937B018C01D7
:1017100080E0642F0E94CA0AC801B70120E030E0CF
:1017200040E853E40E941F020E944900DC01CB0103
:101730000E94EC0A1F910F91FF90EF900895DF93A4
:10174000CF93CDB7DEB729970FB6F894DEBF0FBEA3
:10175000CDBF90E4998398E49A83FE01E60FF11DD2
:1017600091819B8392E09C838D831E821F821886C9
:101770008FE78987CE0103960E94820A29960FB6C9
:10178000F894DEBF0FBECDBFCF91DF91089584E402
:1017900062E040E00E94010C84E463E040E00E94CB
:1017A000010C82E462E040E00E94010C84E462E00B
:1017B00041E00E94730C84E463E041E00E94730CFA
:1017C00082E462E041E00E94730C85B78D7F85BFA3
:1017D00085B78E7F85BF85B78B7F85BF85B7877FB0
:1017E00085BF84B78F7B84BF8FB780688FBF8BB76F
:1017F00080688BBF8BB780648BBF8BB780628BBFD9
:101800000895823429F1833420F4813409F06AC0C8
:1018100006C08334B1F1843409F064C04BC0413058
:1018200059F42AB381E090E002C0880F991F6A95AD
:10183000E2F7282B2ABB08952AB381E090E002C08A
:10184000880F991F6A95E2F7809582238ABB0895D5
:10185000413059F427B381E090E002C0880F991F0E
:101860006A95E2F7282B27BB089527B381E090E023
:1018700002C0880F991F6A95E2F78095822387BB83
:101880000895413059F424B381E090E002C0880FFC
:10189000991F6A95E2F7282B24BB089524B381E0B1
:1018A00090E002C0880F991F6A95E2F78095822325
:1018B00084BB0895413059F421B381E090E002C027
:1018C000880F991F6A95E2F7282B21BB089521B351
:1018D00081E090E002C0880F991F6A95E2F7809539
:1018E000822381BB0895823429F1833420F481342A
:1018F00009F06AC006C08334B1F1843409F064C0D1
:101900004BC0413059F42BB381E090E002C0880F06
:10191000991F6A95E2F7282B2BBB08952BB381E022
:1019200090E002C0880F991F6A95E2F780958223A4
:101930008BBB0895413059F428B381E090E002C098
:10194000880F991F6A95E2F7282B28BB089528B3C2
:1019500081E090E002C0880F991F6A95E2F78095B8
:10196000822388BB0895413059F425B381E090E08B
:1019700002C0880F991F6A95E2F7282B25BB0895AE
:1019800025B381E090E002C0880F991F6A95E2F7C5
:101990008095822385BB0895413059F422B381E0BC
:1019A00090E002C0880F991F6A95E2F7282B22BBAE
:1019B000089522B381E090E002C0880F991F6A95D4
:1019C000E2F78095822382BB0895823469F08334E4
:1019D00018F4813429F406C0833441F0843441F092
:1019E00020E00FC029B305C026B303C023B301C054
:1019F00020B381E090E002C0880F991F6A95E2F75A
:101A00002823822F0895823451F1833418F48134CD
:101A100039F408C0833409F43FC0843409F459C050
:101A200060E073C060E040E050E0E1E0F0E089B3E6
:101A30009F01042E02C0220F331F0A94E2F790E0A8
:101A400082239323019711F4622B03C0822F809588
:101A500068234F5F5F4F4830510549F756C060E03B
:101A600040E050E0E1E0F0E086B39F01042E02C0C8
:101A7000220F331F0A94E2F790E082239323019709
:101A800011F4622B03C0822F809568234F5F5F4F54
:101A90004830510549F739C060E040E050E0E1E0EE
:101AA000F0E083B39F01042E02C0220F331F0A947B
:101AB000E2F790E082239323019711F4622B03C095
:101AC000822F809568234F5F5F4F4830510549F75B
:101AD0001CC060E040E050E0E1E0F0E080B39F0136
:101AE000042E02C0220F331F0A94E2F790E08223F3
:101AF0009323019711F4622B03C0822F80956823F2
:101B00004F5F5F4F4830510549F7862F0895823463
:101B1000A9F0833418F4813489F505C08334C9F001
:101B2000843461F521C02BB381E090E002C0880FBE
:101B3000991F6A95E2F728272BBB089528B381E007
:101B400090E002C0880F991F6A95E2F7282728BB0A
:101B5000089525B381E090E002C0880F991F6A952F
:101B6000E2F7282725BB089522B381E090E002C068
:101B7000880F991F6A95E2F7282722BB08958234BF
:101B800061F0833418F4813469F405C0833439F08A
:101B9000843441F406C06BBB089568BB089565BBEF
:101BA000089562BB0895823479F0833418F4813447
:101BB000C9F405C0833469F08434A1F40FC08BB339
:101BC000607F862B8BBB089588B3607F862B88BB94
:101BD000089585B3607F862B85BB089582B3607FAF
:101BE000862B82BB0895823471F0833418F48134DB
:101BF000A9F405C0833459F0843481F40CC08BB34C
:101C00008F708BBB089588B38F7088BB089585B3A0
:101C10008F7085BB089582B38F7082BB0895823424
:101C200069F1833420F4813409F088C007C083341B
:101C300009F444C0843409F081C060C0413091F49B
:101C400080B78F7E80BF3AB381E090E002C0880FFA
:101C5000991F6A95E2F7282F209523232ABB2BB3DF
:101C6000822B0AC02BB381E090E002C0880F991F3D
:101C70006A95E2F7809582238BBB0895413091F4F9
:101C800080B78F7E80BF37B381E090E002C0880FBD
:101C9000991F6A95E2F7282F2095232327BB28B3A5
:101CA000822B0AC028B381E090E002C0880F991F00
:101CB0006A95E2F78095822388BB0895413091F4BC
:101CC00080B78F7E80BF34B381E090E002C0880F80
:101CD000991F6A95E2F7282F2095232324BB25B36B
:101CE000822B0AC025B381E090E002C0880F991FC3
:101CF0006A95E2F78095822385BB0895413099F477
:101D000080B78F7E80BF31B381E090E002C0880F42
:101D1000991F6A95E2F7282F2095232321BB22B330
:101D2000822B82BB089522B381E090E002C0880F2D
:101D3000991F6A95E2F78095822382BB0895FC0182
:101D400080818295880F880F807C87B9379A339875
:101D500096B18181880F880F880F892B86B986B14B
:101D6000887F9281892B86B9089527B1207E262B02
:101D700027B9369AFC0181818823A1F4349BFECFD8
:101D8000349A84B195B19093CF018093CE01809124
:101D9000C2019091C301892B29F0E091C201F09119
:101DA000C301099508959093C3018093C2010895DA
:101DB0001F920F920FB60F9211242F933F934F93C0
:101DC0005F936F937F938F939F93AF93BF93EF93A3
:101DD000FF9384B195B19093CF018093CE01809110
:101DE000C2019091C301892B29F0E091C201F091C9
:101DF000C3010995FF91EF91BF91AF919F918F9191
:101E00007F916F915F914F913F912F910F900FBEF6
:101E10000F901F90189583E461E041E00E94730CDD
:101E200081E08A95F1F783E461E040E00E94730C61
:101E300008950F931F93082F182F12951F70412F8D
:101E4000417083E462E00E94730C1695412F41704B
:101E500083E463E00E94730C1695117083E464E0E0
:101E6000412F0E94730C402F441F4427441F83E4DA
:101E700065E00E94730C83E460E041E00E94730C13
:101E80000E940B0F102F1F70017083E462E0402F3F
:101E90000E94730C412F4695417083E463E00E94D9
:101EA000730C16951695412F417083E464E00E94EF
:101EB000730C169583E465E0412F0E94730C0E9419
:101EC0000B0F1F910F9108950F931F93CF93DF93E3
:101ED000062FEC0110E004C089910E94190F1F5FCA
:101EE0001017D0F3DF91CF911F910F910895CF93E9
:101EF000DF93EC0103C00E94190F2196888188238B
:101F0000D1F7DF91CF9108950F931F93082F182FCA
:101F100012951F70412F417083E462E00E94730CA0
:101F20001695412F417083E463E00E94730C16956F
:101F3000117083E464E0412F0E94730C402F441F12
:101F40004427441F83E465E00E94730C83E460E04F
:101F500040E00E94730C0E940B0F102F1F70017045
:101F600083E462E0402F0E94730C412F469541703C
:101F700083E463E00E94730C16951695412F41701F
:101F800083E464E00E94730C169583E465E0412FBE
:101F90000E94730C0E940B0F1F910F91089581E016
:101FA0000E94840F80ED97E00197F1F7089583E494
:101FB00062E041E00E94010C83E463E041E00E94A2
:101FC000010C83E464E041E00E94010C83E465E0DD
:101FD00041E00E94010C83E461E041E00E94010CB9
:101FE00083E460E041E00E94010C82E00E94840FE3
:101FF00088E20E94840F8CE00E94840F0E94CF0F21
:1020000008958F929F92AF92BF92DF92EF92FF92CC
:102010000F931F93DF93CF93CDB7DEB728970FB6FB
:10202000F894DEBF0FBECDBF84E0898385E08A834C
:1020300086E08B8387E08C8383E38D8386E38E83C6
:1020400089E38F8383E2888796E4D92E00E010E04D
:102050004E010894811C911C85E0A82EB12CAC0E79
:10206000BD1EF401E00FF11FE08084E46E2D41E01D
:102070000E94730C82E462E00E94E50C813011F052
:10208000FF2406C0F501E00FF11FD080FF24F39478
:1020900084E46E2D40E00E94730CFF2029F40F5F52
:1020A0001F4F04301105E9F68D2D28960FB6F894D0
:1020B000DEBF0FBECDBFCF91DF911F910F91FF907B
:1020C000EF90DF90BF90AF909F908F9008958F9288
:1020D0009F92AF92BF92DF92EF92FF920F931F9366
:1020E000DF93CF93CDB7DEB728970FB6F894DEBF56
:1020F0000FBECDBF84E0898385E08A8386E08B8331
:1021000087E08C8382E38D8385E38E8388E38F83EE
:1021100080E3888736E4D32E00E010E04E01089477
:10212000811C911C25E0A22EB12CAC0EBD1EF40129
:10213000E00FF11FE08084E46E2D41E00E94730CFB
:1021400084E463E00E94E50C813011F0FF2406C0B6
:10215000F501E00FF11FD080FF24F39484E46E2D8D
:1021600040E00E94730CFF2029F40F5F1F4F0430E2
:102170001105E9F68D2D28960FB6F894DEBF0FBE37
:10218000CDBFCF91DF911F910F91FF90EF90DF9026
:10219000BF90AF909F908F9008958F929F92AF9233
:1021A000BF92DF92EF92FF920F931F93DF93CF9333
:1021B000CDB7DEB728970FB6F894DEBF0FBECDBF00
:1021C00084E0898385E08A8386E08B8387E08C8343
:1021D00081E38D8384E38E8387E38F838AE288871C
:1021E00056E4D52E00E010E04E010894811C911CAD
:1021F00045E0A42EB12CAC0EBD1EF401E00FF11F82
:10220000E08084E46E2D41E00E94730C84E462E07F
:102210000E94E50C813011F0FF2406C0F501E00FAB
:10222000F11FD080FF24F39484E46E2D40E00E94DF
:10223000730CFF2029F40F5F1F4F04301105E9F6DE
:102240008D2D28960FB6F894DEBF0FBECDBFCF916F
:10225000DF911F910F91FF90EF90DF90BF90AF90B3
:102260009F908F9008950E94C70B84E464E041E042
:102270000E94010C84E465E041E00E94010C84E4CA
:1022800066E041E00E94010C84E467E041E00E94C6
:10229000010C84E464E040E00E94730C84E465E097
:1022A00040E00E94730C84E466E040E00E94730CFE
:1022B00084E467E040E00E94730C08958091B601C9
:1022C0009091B70101969093B7018093B6018091E8
:1022D000C5018130A9F48091A1012091A2012817A4
:1022E00078F490E0821B9109069754F08091C80120
:1022F0009091C90101969093C9018093C80104C0CF
:102300001092C9011092C8018091B6019091B70155
:1023100068EC70E00E94FE13892B59F48091C5018E
:10232000823021F08091C501813019F481E08093E1
:10233000A3018091B6019091B70164EF71E00E9412
:10234000FE13892B59F48091C501823021F08091D0
:10235000C501813019F481E08093C6018091C801E4
:102360009091C90168E077E00E94FE13892B79F40F
:102370008091C501813059F483E08093C5011092AA
:10238000C9011092C8011092B7011092B6010895C8
:102390001F920F920FB60F9211242F933F934F93DA
:1023A0005F936F937F938F939F93AF93BF93EF93BD
:1023B000FF930E9401108093A0018091A0018332BD
:1023C000B9F48091C501882321F481E08093C5018F
:1023D00006C08091C501813011F41092C501609151
:1023E000C5018AE991E04CE951E00E940B0816C052
:1023F0008091C501813021F08091C501823071F456
:10240000E091C401F0E08091A001E856FE4F808386
:102410008091C40191E089278093C401FF91EF91DD
:10242000BF91AF919F918F917F916F915F914F91EC
:102430003F912F910F900FBE0F901F9018951F92F4
:102440000F920FB60F9211242F933F934F935F93E8
:102450006F937F938F939F93AF93BF93EF93FF936C
:102460008091C501813021F08091C501823091F4C5
:102470000E9467108093A001E091C401F0E0809178
:10248000A001E856FE4F80838091C40191E0892726
:102490008093C401FF91EF91BF91AF919F918F9174
:1024A0007F916F915F914F913F912F910F900FBE50
:1024B0000F901F901895CF92DF92EF92FF920F939B
:1024C0001F937C016B01FC0180810E944607082F4D
:1024D000F70181810E9446079AE0099F800111243B
:1024E000800FF60180831F910F91FF90EF90DF9096
:1024F000CF9008951F920F920FB60F9211242F9331
:102500003F934F935F936F937F938F939F93AF937B
:10251000BF93EF93FF930E94CD108093A001809111
:10252000A0018A32A1F58091C501813021F080910E
:10253000C501823061F59091C401913069F480E366
:1025400080939A018091980180939B018091C401AE
:1025500089278093C4010CC08091C401882369F548
:102560008091980180939A018091990180939B01B9
:102570006091C5018AE991E04CE951E00E940B08A5
:102580008AE991E061EA71E00E945B1216C08091D5
:10259000C501813021F08091C501823071F4E09154
:1025A000C401F0E08091A001E856FE4F8083809145
:1025B000C40191E089278093C401FF91EF91BF91FD
:1025C000AF919F918F917F916F915F914F913F91CB
:1025D0002F910F900FBE0F901F901895AF92BF9242
:1025E000CF92DF92EF92FF920F931F938091C501DC
:1025F000813071F5A090CA01B090CB01C090CC01A0
:10260000D090CD016091A10170E080E090E00E9447
:10261000A7047B018C016091A20170E0882777FDFF
:102620008095982F0E94F5039B01AC01C801B7016A
:102630000E94C10120E030E040E251E40E94190311
:10264000A60195010E941F0242E00E94820B02C077
:102650000E947C0B1F910F91FF90EF90DF90CF9025
:10266000BF90AF9008958091C6018130E9F484EA6B
:1026700091E060E00E94B50E6091CE017091CF01B3
:1026800080E090E00E94A70420E030E040E85AE3B8
:102690000E941F026093CA017093CB018093CC010A
:1026A0009093CD011092C60108958091A3018130CD
:1026B00021F50E94730720919C0180919E012817AB
:1026C00031F490919F0180919D018917A1F0209391
:1026D0009E0180919D0180939F016091C5018AE9CF
:1026E00091E04CE951E00E940B088CE991E062EA2C
:1026F00071E00E945B121092A3010895FF920F9364
:102700001F938EE591E10E94CA070E9433110E9437
:10271000B4070E94E30884EA91E00E949F0E82E0E1
:1027200061E00E949F0B6091C5018AE991E04CE94C
:1027300051E00E940B0802E083E0F82E11E00E94B5
:1027400055130E94EE120E9433138091C50181300F
:1027500021F52091A2018091A101821738F430E087
:10276000281B3109263031055CF407C02817A8F46E
:1027700090E0821B9109069784F40093C50105C07F
:102780002B30310554F0F092C5016091C5018AE902
:1027900091E04CE951E00E940B088091C501823024
:1027A00071F63091A2012091A101231730F4832FFB
:1027B00090E0821B9109069754F4321708F0BFCFBE
:1027C000822F90E0831B910906970CF4B8CF1093E9
:1027D000C5016091C5018AE991E04CE951E00E9490
:1027E0000B08ADCF991B79E004C0991F961708F02C
:1027F000961B881F7A95C9F780950895AA1BBB1B65
:1028000051E107C0AA1FBB1FA617B70710F0A61BF0
:10281000B70B881F991F5A95A9F780959095BC0111
:10282000CD0108952F923F924F925F926F927F92C7
:102830008F929F92AF92BF92CF92DF92EF92FF92D0
:102840000F931F93CF93DF93CDB7DEB7CA1BDB0B7C
:102850000FB6F894DEBF0FBECDBF09942A88398821
:1028600048885F846E847D848C849B84AA84B98428
:10287000C884DF80EE80FD800C811B81AA81B98134
:10288000CE0FD11D0FB6F894DEBF0FBECDBFED0148
:062890000895F894FFCF4B
:102896005354414E444259004F5045524154494FBA
:1028A6004E004E4F524D414C004552524F5200532E
:1028B60045543A004352543A0053544154453A0061
:1028C60000000000000000000001020203030303F1
:1028D60004040404040404040505050505050505AA
:1028E600050505050505050506060606060606068A
:1028F6000606060606060606060606060606060672
:102906000606060606060606070707070707070759
:102916000707070707070707070707070707070741
:102926000707070707070707070707070707070731
:102936000707070707070707070707070707070721
:102946000707070707070707080808080808080809
:1029560008080808080808080808080808080808F1
:1029660008080808080808080808080808080808E1
:1029760008080808080808080808080808080808D1
:1029860008080808080808080808080808080808C1
:1029960008080808080808080808080808080808B1
:1029A60008080808080808080808080808080808A1
:1029B6000808080808080808080808080808080891
:1029C6000808080808080808323532353235323525
:1029D60046191901010005000803010100006918E4
:00000001FF
